:100000000C943A010C9459010C9459010C94590127
:100010000C9459010C9459010C9459010C945901F8
:100020000C9459010C9459010C9459010C945901E8
:100030000C9459010C9459010C9459010C945901D8
:100040000C9459010C9459010C9459010C945901C8
:100050000C9459010C9459010C9459010C945901B8
:100060000C9459010C9459010C9459010C945901A8
:100070000C9459010C9459010C9459010C94590198
:100080000C9459010C9459010C9459010C94590188
:100090000C9459010C945901000000000000005F0D
:1000A00000000003000300143E143E14242A7F2A9B
:1000B000124333086661364955225000050300009B
:1000C000001C2241000041221C0014083E081408B4
:1000D000083E0808005030000008080808080060C2
:1000E00060000020100804023E5149453E00040211
:1000F0007F00426151494622414949361814127F16
:100100001027454545393E494949320101710907E2
:100110003649494936264949493E003636000000ED
:10012000563600000814224100141414141400411F
:1001300022140802015109063E4159555E7E090903
:10014000097E7F494949363E414141227F41414133
:100150003E7F494949417F090909013E4141493AE8
:100160007F0808087F00417F4100304040403F7FCA
:10017000081422417F404040407F020C027F7F02F2
:1001800004087F3E4141413E7F090909061E2121A5
:10019000215E7F09090976264949493201017F011B
:1001A000013F4040403F1F2040201F7F2010207F04
:1001B00041221C224107087008076151494543004C
:1001C0007F41000002040810200000417F0004026B
:1001D0000102044040404040000102040020545409
:1001E00054787F4444443838444444443844444474
:1001F0007F385454541804047E0505085454543C64
:100200007F0804047800447D40002040443D007F86
:100210001028440000417F40007C047804787C086A
:1002200004047838444444387C1414140808141422
:10023000147C007C080404485454542004043F44B3
:10024000443C4040207C1C2040201C3C4030403C32
:1002500044281028440C5050503C4464544C4400F2
:100260000836414100007F0000414136080002018C
:100270000204020011241FBECFEFD0E2DEBFCDBFCB
:1002800011E0A0E0B1E0E4E3FEE000E00BBF02C05B
:1002900007900D92AE35B107D9F721E0AEE5B1E098
:1002A00001C01D92A43DB207E1F70E949D050C9488
:1002B00018070C94000093E89093B00091E090939D
:1002C000B1008093B3000895909367018093660115
:1002D00026E330E020930040009779F480EF90E02F
:1002E000909363018093620180E491E090936501B3
:1002F0008093640188E490E034C08130910579F402
:1003000080E491E0909363018093620180EF90E03C
:10031000909365018093640188EE90E022C0823062
:10032000910579F480EF90E09093630180936201EE
:1003300080E491E0909365018093640188E890E007
:1003400010C0039781F480E491E09093630180935F
:10035000620180EF90E0909365018093640188E2F0
:1003600090E0809300418AE290E08093004080E03A
:1003700090E09093004180930041809162019091C0
:100380006301019790930041809300418BE290E0DC
:100390008093004080E090E0909300418093004182
:1003A0008091640190916501019790930041809341
:1003B00000410895CF93873750F4883050F08D3343
:1003C00050F48F3150F4803150F0C2E009C086E71C
:1003D00002C088E004C0C0E003C0C1E001C0C3E0C7
:1003E00021EB30E020930040C0930041682F70E083
:1003F00080E090E00E944B069B01AC0160E070E061
:1004000080EF94E40E94B5050E941D0670E002C0D2
:1004100075956795CA95E2F760930041CF9108956D
:100420000F931F93CF93DF93CDB7DEB728970FB607
:10043000F894DEBF0FBECDBF29833A834B835C8324
:100440006D837E838F83988769817A812B813C813C
:100450004D815E818F819885EAE2F0E0E093004073
:10046000709300416093004130930041209300411C
:10047000EBE2F0E0E09300405093004140930041F4
:100480009093004180930041ECE2F0E0E093004063
:100490002F5F3F4F261B370B0196841B950B2817A8
:1004A000390790F4682F6770629FA001639F500D19
:1004B000112473E0969587957A95E1F7829FB001B4
:1004C000839F700D112411C0622F6770689FA00177
:1004D000699F500D112463E0369527956A95E1F7E1
:1004E000289FB001299F700D1124842F877081509F
:1004F00028F01093004100930041F9CFCA0123E096
:10050000969587952A95E1F7860F971F019708F131
:10051000109300410093004110930041009300416B
:10052000109300410093004110930041009300415B
:10053000109300410093004110930041009300414B
:10054000109300410093004110930041009300413B
:10055000DDCF28960FB6F894DEBF0FBECDBFDF917A
:10056000CF911F910F910895EF92FF920F931F93D8
:10057000CF93DF93CDB7DEB728970FB6F894DEBFE1
:100580000FBECDBF29833A834B835C836D837E830B
:100590008F83988789819A81EB80FC806D817E8131
:1005A000AF81B8852AE230E020930040909300416B
:1005B00080930041F0920041E09200412BE230E054
:1005C000209300407093004160930041B09300413C
:1005D000A09300412CE230E020930040E816F90699
:1005E000A0F0A8019B018A01A217B30760F04E5F3B
:1005F0005F4FF80100811181109300410093004189
:100600002F5F3F4FF0CF0196E9CF28960FB6F894B1
:10061000DEBF0FBECDBFDF91CF911F910F91FF9035
:10062000EF9008950F931F93CF93DF93CDB7DEB76D
:1006300028970FB6F894DEBF0FBECDBF10926901A8
:100640001092680110926B0110926A011A8219824D
:1006500080916201909163010197482F9C838B8365
:100660001E821D8280916401909165010197988797
:100670008F8300916E0110916F0120E03A815C81BF
:1006800060E07E8198850E94100228960FB6F8944B
:10069000DEBF0FBECDBFDF91CF911F910F910895A7
:1006A00086E08093750080E8809374003F9A249AD6
:1006B0008FEC97E00197F1F700C0000047988FE3B7
:1006C0009CE90197F1F700C00000479A9FEF2DEEDB
:1006D00082E0915020408040E1F700C0000088E2B5
:1006E00090E08093004081E190E0809300409FEF94
:1006F00026E781E0915020408040E1F700C00000F3
:1007000021E030E08BEC90E08093004020930041AA
:1007100080EC90E08093004088E096E29093004166
:100720008093004120E130E081EC90E08093004034
:100730002093004185EC90E0809300408EE395E3A8
:10074000909300418093004125EB30E087EC90E0EE
:10075000809300402093004121E030E086EF90E05C
:10076000809300402093004180E090E0909300410E
:100770008093004125E530E08AE390E080930040DB
:100780002093004181E090E00E9464010E941203E6
:10079000109269011092680110926B0110926A0127
:1007A00010926F0110926E018FEF9FEF90936D0189
:1007B00080936C0189E290E0809300409FE728E3FA
:1007C00081E0915020408040E1F700C0000020E02F
:1007D00030E085E390E08093004020930041EAE61A
:1007E000F0E08081806280832C9A08958CEF9FEFE7
:1007F00090936B0180936A010895CF92DF92EF92FC
:10080000FF920F931F93CF93DF93F0916801E091D4
:10081000690120916A0130916B018A30E1F41092F4
:10082000690110926801285F3F4F30936B0120935C
:100830006A0180916401909165012817390708F4D5
:100840008BC0DF91CF911F910F91FF90EF90DF90C0
:10085000CF900C94120390EE980F9F3508F07CC057
:10086000B901695F7F4F992787FD90958097A5E033
:10087000A89FA001A99F500D112448565F4F8BE2FD
:1008800090E08093004030930041209300417093AA
:100890000041609300418F2F9E2F8C010C5F1F4FF2
:1008A000EAE2EE2EF12CFCE2CF2ED12C481B590BA4
:1008B0000817190750F1E09200409093004180938F
:1008C00000419093004180930041C0920040FA01A2
:1008D000E80FF91FE491D901F1E06A177B0798F05E
:1008E000CF2FCE2329F0C0916C01D0916D0104C0AF
:1008F000C0916E01D0916F01D0930041C09300412F
:100900001196FF0FEACF0196D3CF4AE250E0409311
:100910000040909300418093004190930041809368
:1009200000418CE290E0809300406217730758F01A
:1009300080916E0190916F019093004180930041EE
:100940002F5F3F4FF2CF8091680190916901069629
:100950009093690180936801DF91CF911F910F916E
:10096000FF90EF90DF90CF9008951F93CF93DF9388
:10097000EC0110E0FE01E10FF11D8081882321F0E0
:100980000E94FD031F5FF6CFDF91CF911F91089565
:10099000909369018093680170936B0160936A0181
:1009A000089590936D0180936C0170936F01609333
:1009B0006E0108951F93CF93DF93EC01709369014B
:1009C0006093680150936B0140936A0110E0FE014F
:1009D000E10FF11D8081882321F00E94FD031F5F3C
:1009E000F6CFDF91CF911F910895FF920F931F9340
:1009F000CF93DF93CDB7DEB7CF5FD1090FB6F894B1
:100A0000DEBF0FBECDBF4EEF50E0BC01CE01019660
:100A10000E94E20660E071E0CE0101960E94D706D6
:100A200000E024E6F22E0097A1F1FC0101900020E5
:100A3000E9F73197E81BF90B1E2F110F1E0F110F4D
:100A4000212F30E0200F311D253631055CF020913B
:100A50005E0130915F012F5F3F4F30935F01209324
:100A60005E0100E040915E0150915F01F49E9001B3
:100A7000F59E300D1124BC01C90180599E4F0E9482
:100A8000DB0660E071E080E090E00E94D706010F95
:100A9000CACFC150DF4F0FB6F894DEBF0FBECDBF37
:100AA000DF91CF911F910F91FF900895E1E6F0E063
:100AB00080E8808310820C945003CF93DF93EC0185
:100AC000CB0160E070E00E94D104CE01DF91CF91B4
:100AD0000C94F5041F93CF93DF93EC0110E0FE011B
:100AE000E10FF11D8081882351F00E94FD038FE109
:100AF0009EE40197F1F700C000001F5FF0CFDF9187
:100B0000CF911F9108950F931F93CF93DF938C0183
:100B1000C0E0D0E0C8018C0F9D1F0E946A058AE0EA
:100B20000E94FD03CC59DF4FC03D87E0D80791F705
:100B3000DF91CF911F910F9108950E94560560E2B9
:100B40007DEF82E091E00E945D0560EE77E081E25A
:100B500091E00E945D0560E078EF8EE391E00E94F5
:100B60005D0580E791E00C9483050CD0E6C0DED0F3
:100B700040F0D5D030F021F45F3F19F0C7C05111DB
:100B800010C1CAC0EBD098F39923C9F35523B1F330
:100B9000951B550BBB27AA2762177307840738F0EC
:100BA0009F5F5F4F220F331F441FAA1FA9F333D04B
:100BB0000E2E3AF0E0E830D091505040E695001CFF
:100BC000CAF729D0FE2F27D0660F771F881FBB1FBB
:100BD000261737074807AB07B0E809F0BB0B802D95
:100BE000BF01FF2793585F4F2AF09E3F510568F0E1
:100BF0008DC0D7C05F3FECF3983EDCF386957795C8
:100C00006795B795F7959F5FC9F7880F911D9695E2
:100C1000879597F90895E1E0660F771F881FBB1F3E
:100C2000621773078407BA0720F0621B730B840BEB
:100C3000BA0BEE1F88F7E095089598D088F09F577B
:100C400090F0B92F9927B751A0F0D1F0660F771F18
:100C5000881F991F1AF0BA95C9F712C0B13081F0F8
:100C60009FD0B1E008959CC0672F782F8827B85F88
:100C700039F0B93FCCF3869577956795B395D9F759
:100C80003EF490958095709561957F4F8F4F9F4F63
:100C90000895E89409C097FB3EF49095809570956F
:100CA00061957F4F8F4F9F4F9923A9F0F92F96E9B8
:100CB000BB279395F695879577956795B795F1112D
:100CC000F8CFFAF4BB0F11F460FF1BC06F5F7F4FCA
:100CD0008F4F9F4F16C0882311F096E911C07723DC
:100CE00021F09EE8872F762F05C0662371F096E8E5
:100CF000862F70E060E02AF09A95660F771F881FB4
:100D0000DAF7880F9695879597F9089597F99F6771
:100D100080E870E060E008959FEF80EC0895002483
:100D20000A941616170618060906089500240A9450
:100D300012161306140605060895092E0394000CD6
:100D400011F4882352F0BB0F40F4BF2B11F460FF65
:100D500004C06F5F7F4F8F4F9F4F089557FD90588E
:100D6000440F551F59F05F3F71F04795880F97FB6F
:100D7000991F61F09F3F79F0879508951216130629
:100D80001406551FF2CF4695F1DF08C01616170658
:100D90001806991FF1CF869571056105089408958D
:100DA000E894BB2766277727CB0197F9089540E69B
:100DB00051E00C94F106FB01DC0101900D92002042
:100DC000E1F70895FB01DC014150504048F00190EB
:100DD0000D920020C9F701C01D9241505040E0F72C
:100DE0000895FA01A191B081009719F41097E1F0EC
:100DF000CD01DC01CD010D90002011F4C00113C024
:100E0000FB012191222319F02015D9F7F3CFFB0123
:100E10002191201519F41E92119606C02223C1F7C4
:100E20000D900020A1F7D001FA01A193B08308959D
:040E3000F894FFCF64
:100E34002000446F6E27742073746F70206865728D
:100E4400652C206B6565702077726974696E672103
:100E540000446F6E27742073746F70206865726528
:100E64002C206B65657020646F696E672100446F88
:100E74006E27742073746F7020686572652C206B04
:0E0E840065657020776F726B696E67210000E4
:00000001FF
