:100000000C943A010C9459010C9459010C94590127
:100010000C9459010C9459010C9459010C945901F8
:100020000C9459010C9459010C9459010C945901E8
:100030000C9459010C9459010C9459010C945901D8
:100040000C9459010C9459010C9459010C945901C8
:100050000C9459010C949C070C9459010C9459016F
:100060000C9459010C9459010C9459010C945901A8
:100070000C9459010C9459010C9459010C94590198
:100080000C9459010C9459010C9459010C94590188
:100090000C9459010C945901000000000000005F0D
:1000A00000000003000300143E143E14242A7F2A9B
:1000B000124333086661364955225000050300009B
:1000C000001C2241000041221C0014083E081408B4
:1000D000083E0808005030000008080808080060C2
:1000E00060000020100804023E5149453E00040211
:1000F0007F00426151494622414949361814127F16
:100100001027454545393E494949320101710907E2
:100110003649494936264949493E003636000000ED
:10012000563600000814224100141414141400411F
:1001300022140802015109063E4159555E7E090903
:10014000097E7F494949363E414141227F41414133
:100150003E7F494949417F090909013E4141493AE8
:100160007F0808087F00417F4100304040403F7FCA
:10017000081422417F404040407F020C027F7F02F2
:1001800004087F3E4141413E7F090909061E2121A5
:10019000215E7F09090976264949493201017F011B
:1001A000013F4040403F1F2040201F7F2010207F04
:1001B00041221C224107087008076151494543004C
:1001C0007F41000002040810200000417F0004026B
:1001D0000102044040404040000102040020545409
:1001E00054787F4444443838444444443844444474
:1001F0007F385454541804047E0505085454543C64
:100200007F0804047800447D40002040443D007F86
:100210001028440000417F40007C047804787C086A
:1002200004047838444444387C1414140808141422
:10023000147C007C080404485454542004043F44B3
:10024000443C4040207C1C2040201C3C4030403C32
:1002500044281028440C5050503C4464544C4400F2
:100260000836414100007F0000414136080002018C
:100270000204020011241FBECFEFD0E2DEBFCDBFCB
:1002800013E0A0E0B1E0E0E2F4E100E00BBF02C067
:1002900007900D92AE32B107D9F723E0AEE2B3E09A
:1002A00001C01D92AA34B207E1F70E94CD070C9459
:1002B0000E0A0C94000093E89093B00091E09093A4
:1002C000B1008093B30008959093400380933F035F
:1002D00026E330E020930040009779F480EF90E02F
:1002E00090933C0380933B0380E491E090933E0322
:1002F00080933D0388E490E034C08130910579F427
:1003000080E491E090933C0380933B0380EF90E086
:1003100090933E0380933D0388EE90E022C08230AC
:10032000910579F480EF90E090933C0380933B0338
:1003300080E491E090933E0380933D0388E890E051
:1003400010C0039781F480E491E090933C03809384
:100350003B0380EF90E090933E0380933D0388E25F
:1003600090E0809300418AE290E08093004080E03A
:1003700090E0909300418093004180913B039091E5
:100380003C03019790930041809300418BE290E001
:100390008093004080E090E0909300418093004182
:1003A00080913D0390913E0301979093004180938B
:1003B00000410895CF93873750F4883050F08D3343
:1003C00050F48F3150F4803150F0C2E009C086E71C
:1003D00002C088E004C0C0E003C0C1E001C0C3E0C7
:1003E00021EB30E020930040C0930041682F70E083
:1003F00080E090E00E94B2089B01AC0160E070E0F8
:1004000080EF94E40E9417080E94840870E002C004
:1004100075956795CA95E2F760930041CF9108956D
:100420000F931F93CF93DF93CDB7DEB728970FB607
:10043000F894DEBF0FBECDBF29833A834B835C8324
:100440006D837E838F83988769817A812B813C813C
:100450004D815E818F819885EAE2F0E0E093004073
:10046000709300416093004130930041209300411C
:10047000EBE2F0E0E09300405093004140930041F4
:100480009093004180930041ECE2F0E0E093004063
:100490002F5F3F4F261B370B0196841B950B2817A8
:1004A000390790F4682F6770629FA001639F500D19
:1004B000112473E0969587957A95E1F7829FB001B4
:1004C000839F700D112411C0622F6770689FA00177
:1004D000699F500D112463E0369527956A95E1F7E1
:1004E000289FB001299F700D1124842F877081509F
:1004F00028F01093004100930041F9CFCA0123E096
:10050000969587952A95E1F7860F971F019708F131
:10051000109300410093004110930041009300416B
:10052000109300410093004110930041009300415B
:10053000109300410093004110930041009300414B
:10054000109300410093004110930041009300413B
:10055000DDCF28960FB6F894DEBF0FBECDBFDF917A
:10056000CF911F910F910895EF92FF920F931F93D8
:10057000CF93DF93CDB7DEB728970FB6F894DEBFE1
:100580000FBECDBF29833A834B835C836D837E830B
:100590008F83988789819A81EB80FC806D817E8131
:1005A000AF81B8852AE230E020930040909300416B
:1005B00080930041F0920041E09200412BE230E054
:1005C000209300407093004160930041B09300413C
:1005D000A09300412CE230E020930040E816F90699
:1005E000A0F0A8019B018A01A217B30760F04E5F3B
:1005F0005F4FF80100811181109300410093004189
:100600002F5F3F4FF0CF0196E9CF28960FB6F894B1
:10061000DEBF0FBECDBFDF91CF911F910F91FF9035
:10062000EF9008950F931F93CF93DF93CDB7DEB76D
:1006300028970FB6F894DEBF0FBECDBF10924203CD
:100640001092410310924403109243031A821982BC
:1006500080913B0390913C030197482F9C838B83AF
:100660001E821D8280913D0390913E0301979887E1
:100670008F83009147031091480320E03A815C8109
:1006800060E07E8198850E94100228960FB6F8944B
:10069000DEBF0FBECDBFDF91CF911F910F910895A7
:1006A00086E08093750080E8809374003F9A249AD6
:1006B0008FEC97E00197F1F700C0000047988FE3B7
:1006C0009CE90197F1F700C00000479A9FEF2DEEDB
:1006D00082E0915020408040E1F700C0000088E2B5
:1006E00090E08093004081E190E0809300409FEF94
:1006F00026E781E0915020408040E1F700C00000F3
:1007000021E030E08BEC90E08093004020930041AA
:1007100080EC90E08093004088E096E29093004166
:100720008093004120E130E081EC90E08093004034
:100730002093004185EC90E0809300408EE395E3A8
:10074000909300418093004125EB30E087EC90E0EE
:10075000809300402093004121E030E086EF90E05C
:10076000809300402093004180E090E0909300410E
:100770008093004125E530E08AE390E080930040DB
:100780002093004181E090E00E9464010E941203E6
:1007900010924203109241031092440310924303BB
:1007A00010924803109247038FEF9FEF90934603F8
:1007B0008093450389E290E0809300409FE728E31F
:1007C00081E0915020408040E1F700C0000020E02F
:1007D00030E085E390E08093004020930041EAE61A
:1007E000F0E08081806280832C9A08950F931F939C
:1007F000CF93DF93CDB7DEB728970FB6F894DEBF5F
:100800000FBECDBF109242031092410310924403D9
:10081000109243031A82198280913B0390913C030A
:100820000197482F9C838B831E821D8285EE8F83C8
:100830001886009147031091480320E03A815C81BB
:1008400060E07E8190E00E94100228960FB6F89436
:10085000DEBF0FBECDBFDF91CF911F910F910895E5
:10086000109242031092410308950F931F93CF9368
:10087000DF93CDB7DEB728970FB6F894DEBF0FBE73
:10088000CDBF1A82198280913B0390913C0301975E
:10089000482F9C838B8386EE682F8D831E828091E8
:1008A0003D0390913E03019798878F8300E110E804
:1008B00020E03A815C8170E098850E9410022896C1
:1008C0000FB6F894DEBF0FBECDBFDF91CF911F9161
:1008D0000F910895109242031092410381EE90E02F
:1008E0009093440380934303089580914303909130
:1008F00044030895CF92DF92EF92FF920F931F93DC
:10090000CF93DF93B0914103A09142032091430321
:1009100030914403203E310508F092C08A3059F4EA
:100920001092420310924103285F3F4F30934403DB
:100930002093430385C090EE980F9F3508F080C048
:10094000B901695F7F4F992787FD9095809745E0B2
:10095000489FF001499FF00D1124409100015091F2
:1009600001014E0F5F1F8BE290E0809300403093B7
:1009700000412093004170930041609300418B2F10
:100980009A2F8C010C5F1F4FEAE2EE2EF12CFCE255
:10099000CF2ED12C481B590B0817190750F1E092A4
:1009A00000409093004180930041909300418093D8
:1009B0000041C0920040FA01E80FF91FE491D9010B
:1009C000F1E06A177B0798F0CF2FCE2329F0C09172
:1009D0004503D091460304C0C0914703D09148031A
:1009E000D0930041C09300411196FF0FEACF0196CA
:1009F000D3CF4AE250E0409300409093004180936F
:100A0000004190930041809300418CE290E08093FC
:100A100000406217730758F0809147039091480394
:100A200090930041809300412F5F3F4FF2CF809120
:100A300041039091420306969093420380934103B1
:100A4000DF91CF911F910F91FF90EF90DF90CF90AA
:100A500008951F93CF93DF93EC0110E0FE01E10FA7
:100A6000F11D8081882321F00E947A041F5FF6CF58
:100A7000DF91CF911F91089590934203809341039A
:100A800070934403609343030895909346038093C7
:100A90004503709348036093470308951F93CF93D2
:100AA000DF93EC017093420360934103509344033E
:100AB0004093430310E0FE01E10FF11D8081882384
:100AC00021F00E947A041F5FF6CFDF91CF911F9132
:100AD0000895CF93DF9300D000D000D0CDB7DEB71C
:100AE000FC0180818E3509F041C0DF010D900020AE
:100AF000E9F71197AE1BBF0BA430B105B8F18181A6
:100B00001697A1F5992787FD90958636910599F45A
:100B100080E3898388E78A8382818B8383818C83C6
:100B200084818D8385818E83609147037091480312
:100B3000CE01019616C082369105C1F480E3898307
:100B400088E78A8382818B8383818C8384818D83F0
:100B500085818E83BE016F5F7F4F809145039091A9
:100B600046030E94450581E090E002C080E090E0ED
:100B700026960FB6F894DEBF0FBECDBFDF91CF91A2
:100B8000089522E030E0309331032093300342E0B7
:100B900050E06CE070E00C94F609EF92FF920F9336
:100BA0001F93CF93DF93CDB7DEB7EDB6FEB640917E
:100BB0003003509131038DB79EB7841B950B0FB650
:100BC000F8949EBF0FBE8DBF0DB71EB70F5F1F4FAE
:100BD0006CE070E0C8010E94E609C8010FB6F89405
:100BE000FEBE0FBEEDBEDF91CF911F910F91FF9022
:100BF000EF9008950F931F93CF93DF93CDB7DEB798
:100C000028970FB6F894DEBF0FBECDBF0E94030831
:100C100080E090E00E94B00820E030E040E753E43C
:100C20000E943E090E947F08E0913B03F0913C0343
:100C3000AF0144505109242F5A83498331974E2FD5
:100C4000FC83EB83E62F7E836D83CB01805B9F4F1C
:100C500098878F8300E018EF3A815C816E2F7E8148
:100C600098850E94100228960FB6F894DEBF0FBE3A
:100C7000CDBFDF91CF911F910F91089560E170E892
:100C80008FEF9FEF0E9445050E946A048DE091E07E
:100C90000C942905E1E6F0E080E8808310820C9452
:100CA0005003E1E6F0E080E880831082279A2F98D5
:100CB0008DB180718DB98DB180728DB98EB18F6E0D
:100CC0008EB98EB18F6D8EB982E084BD93E095BDF3
:100CD0009CE797BD80936E0008951F93CF93DF9399
:100CE000EC0110E0FE01E10FF11D8081882321F06D
:100CF0000E947A041F5FF6CFDF91CF911F91089574
:100D0000EF92FF920F931F93CF93DF93CDB7DEB790
:100D1000C353D1400FB6F894DEBF0FBECDBF4EEF28
:100D200050E0BC01CE0101960E94B0096CE271E076
:100D3000CE0101960E94A1098C01F12C011511052B
:100D400009F460C0F80101900020E9F7E01BF10B05
:100D5000E0900201EE9EE02C11248E2D90E08F0D8C
:100D6000911D813F9105ACF1809134039091350341
:100D7000892BC9F46EE271E0CE0193950E94A5091A
:100D8000CE0193950E946D06C050DF4F1882C0506F
:100D9000D1408091320390913303019690933303B5
:100DA0008093320314C08091340390913503892BD2
:100DB00081F080913403909135030197909335032E
:100DC00080933403C050DF4F1882C050D140E12CD3
:100DD000F12CC8010E946905892B59F4B801CE0194
:100DE00093950E94A5096CE271E0CE0193950E9453
:100DF000A5096CE271E080E090E00E94A1098C01FD
:100E0000FE0C9CCF8091340390913503892BC9F45B
:100E10006EE271E0CE0193950E94A509CE019395F3
:100E20000E946D06C050DF4F1882C050D1408091A3
:100E300032039091330301969093330380933203EE
:100E400014C08091340390913503892B71F0809107
:100E500034039091350301979093350380933403C5
:100E6000C050DF4F1882C050D1400E943004CD5C8A
:100E7000DE4F0FB6F894DEBF0FBECDBFDF91CF912E
:100E80001F910F91FF90EF90089580E391E00E94F1
:100E900080068FE491E00E94800686E192E00E9445
:100EA000800681E193E00E94800680E391E00E9449
:100EB000800686E192E00E94800686E192E00E9430
:100EC000800681E193E00E94800680E391E00E9429
:100ED000800686E192E00E94800686E192E00E9410
:100EE000800681E193E00E94800660913203709158
:100EF000330380913403909135030E94FA051092D8
:100F000033031092320380E090E008950E944A0675
:100F10000E94510660910301709104018091360393
:100F2000909137030E9445050E9412030E943504E8
:100F30000E94F6030C9445071F920F920FB60F9272
:100F400011248F939F939CB194FD02C080E001C057
:100F500083E095FF02C091E0892790913803981BA8
:100F600090FF09C0809338038091490381509270AB
:100F7000890F809349039F918F910F900FBE0F901F
:100F80001F901895F89480914903909149039170AE
:100F9000909349037894859508950E9486077894E4
:100FA0002FEF86E791E0215080409040E1F700C0AC
:100FB00000000E94C207992787FD90951816190610
:100FC00044F480912E0390912F030097D1F0019764
:100FD0000CC0892BB1F00E947504833D910588F007
:100FE00080912E0390912F03019690932F0380936D
:100FF0002E0390933503809334030E94F6030E94DE
:1010000045071F9ACDCFAA1BBB1B51E107C0AA1FE2
:10101000BB1FA617B70710F0A61BB70B881F991F99
:101020005A95A9F780959095BC01CD0108950CD0F3
:10103000EBC0E3D040F0DAD030F021F45F3F19F09C
:10104000CCC0511115C1CFC0F0D098F39923C9F38A
:101050005523B1F3951B550BBB27AA2762177307BE
:10106000840738F09F5F5F4F220F331F441FAA1F72
:10107000A9F333D00E2E3AF0E0E830D09150504032
:10108000E695001CCAF729D0FE2F27D0660F771FE0
:10109000881FBB1F261737074807AB07B0E809F0C2
:1010A000BB0B802DBF01FF2793585F4F2AF09E3F57
:1010B000510568F092C0DCC05F3FECF3983EDCF372
:1010C000869577956795B795F7959F5FC9F7880FD0
:1010D000911D9695879597F90895E1E0660F771F22
:1010E000881FBB1F621773078407BA0720F0621BB3
:1010F000730B840BBA0BEE1F88F7E095089504D0AC
:101100006894B111B5C0089598D088F09F5790F0B9
:10111000B92F9927B751A0F0D1F0660F771F881F1C
:10112000991F1AF0BA95C9F712C0B13081F09FD05B
:10113000B1E008959CC0672F782F8827B85F39F0F9
:10114000B93FCCF3869577956795B395D9F73EF47B
:1011500090958095709561957F4F8F4F9F4F089523
:10116000E89409C097FB3EF4909580957095619541
:101170007F4F8F4F9F4F9923A9F0F92F96E9BB27F7
:101180009395F695879577956795B795F111F8CF73
:10119000FAF4BB0F11F460FF1BC06F5F7F4F8F4FDE
:1011A0009F4F16C0882311F096E911C0772321F0D4
:1011B0009EE8872F762F05C0662371F096E8862F6C
:1011C00070E060E02AF09A95660F771F881FDAF7C3
:1011D000880F9695879597F9089597F99F6780E806
:1011E00070E060E008959FEF80EC089500240A9479
:1011F0001616170618060906089500240A941216F2
:101200001306140605060895092E0394000C11F424
:10121000882352F0BB0F40F4BF2B11F460FF04C0D1
:101220006F5F7F4F8F4F9F4F089557FD9058440F2A
:10123000551F59F05F3F71F04795880F97FB991F35
:1012400061F09F3F79F087950895121613061406F2
:10125000551FF2CF4695F1DF08C01616170618067F
:10126000991FF1CF86957105610508940895E8945A
:10127000BB2766277727CB0197F908950BD0C4CFFA
:10128000B5DF28F0BADF18F0952309F0A6CFABCF71
:101290001124EECFCADFA0F3959FD1F3950F50E054
:1012A000551F629FF001729FBB27F00DB11D639F18
:1012B000AA27F00DB11DAA1F649F6627B00DA11DBE
:1012C000661F829F2227B00DA11D621F739FB00D64
:1012D000A11D621F839FA00D611D221F749F3327D4
:1012E000A00D611D231F849F600D211D822F762F6D
:1012F0006A2F11249F5750408AF0E1F088234AF06A
:10130000EE0FFF1FBB1F661F771F881F91505040B5
:10131000A9F79E3F510570F060CFAACF5F3FECF375
:10132000983EDCF3869577956795B795F795E795A1
:101330009F5FC1F7FE2B880F911D9695879597F9B2
:10134000089549E353E00C94BF09FB01DC010D90C3
:101350000020E9F7119701900D920020E1F7089520
:10136000FB01DC014150504048F001900D920020FB
:10137000C9F701C01D9241505040E0F70895FA01AD
:10138000A191B081009719F41097E1F0CD01DC0133
:10139000CD010D90002011F4C00113C0FB0121917B
:1013A000222319F02015D9F7F3CFFB012191201545
:1013B00019F41E92119606C02223C1F70D90002049
:1013C000A1F7D001FA01A193B0830895DC01CB010C
:1013D000FC01F999FECF06C0F2BDE1BDF89A319645
:1013E00000B40D9241505040B8F70895DC01CB0194
:1013F00003C02D910E94010A41505040D0F708953A
:10140000262FF999FECF1FBA92BD81BD20BD0FB620
:10141000F894FA9AF99A0FBE01960895F894FFCFBE
:10142000980006FFFF0000000000000000202020C0
:101430002020202020202020202020205E20454E1B
:1014400044204F462046494C45205E0020000A00BB
:10145000446F6E27742073746F7020686572652CFA
:10146000206B6565702077726974696E672100541E
:101470006865207175657374696F6E2069733A20B1
:101480005E624131343520746865206D756C746915
:10149000706C696572206120697320616C77617975
:1014A0007320676F696E6720746F2072616E676565
:1014B0002066726F6D20302E3020746F20312E30F8
:1014C0002C2069742069732074656D7074696E676F
:1014D00020746F206D616B6520697420616E2075CA
:1014E0006E7369676E656420696E74207131352092
:1014F000746F206765742074686520657874726104
:1015000020626974206F6620707265636973696F09
:101510006E2028616E64206368616E676520746860
:101520006520736869667420636F756E7420746FCC
:10153000203135292E0054686520717565737469F2
:101540006F6E2069733A205768617420686170700B
:10155000656E732069662049207765726520746F17
:10156000206D69782074797065733F20466F722012
:101570006578616D706C652069662049206B6E6FBF
:101580007720746865206D756C7469706C6965721C
:10159000206120697320616C7761797320676F69BE
:1015A0006E6720746F2072616E67652066726F6D62
:1015B00020302E3020746F20312E302C2069742082
:1015C00069732074656D7074696E6720746F206D27
:1015D000616B6520697420616E20756E7369676E3A
:1015E000656420696E742071313520746F206765E1
:1015F0007420746865206578747261206269742053
:101600006F6620707265636973696F6E2028616E02
:1016100064206368616E676520746865207368691B
:10162000667420636F756E7420746F203135292EB7
:1016300000446F6E27742073746F70206865726544
:0E1640002C206B65657020646F696E67210059
:00000001FF
