:100000000C943A010C9459010C9459010C94590127
:100010000C9459010C9459010C9459010C945901F8
:100020000C9459010C9459010C9459010C945901E8
:100030000C9459010C9459010C9459010C945901D8
:100040000C9459010C9459010C9459010C945901C8
:100050000C9459010C9459010C9459010C945901B8
:100060000C9459010C9459010C9459010C945901A8
:100070000C9459010C9459010C9459010C94590198
:100080000C9459010C9459010C9459010C94590188
:100090000C9459010C945901000000000000005F0D
:1000A00000000003000300143E143E14242A7F2A9B
:1000B000124333086661364955225000050300009B
:1000C000001C2241000041221C0014083E081408B4
:1000D000083E0808005030000008080808080060C2
:1000E00060000020100804023E5149453E00040211
:1000F0007F00426151494622414949361814127F16
:100100001027454545393E494949320101710907E2
:100110003649494936264949493E003636000000ED
:10012000563600000814224100141414141400411F
:1001300022140802015109063E4159555E7E090903
:10014000097E7F494949363E414141227F41414133
:100150003E7F494949417F090909013E4141493AE8
:100160007F0808087F00417F4100304040403F7FCA
:10017000081422417F404040407F020C027F7F02F2
:1001800004087F3E4141413E7F090909061E2121A5
:10019000215E7F09090976264949493201017F011B
:1001A000013F4040403F1F2040201F7F2010207F04
:1001B00041221C224107087008076151494543004C
:1001C0007F41000002040810200000417F0004026B
:1001D0000102044040404040000102040020545409
:1001E00054787F4444443838444444443844444474
:1001F0007F385454541804047E0505085454543C64
:100200007F0804047800447D40002040443D007F86
:100210001028440000417F40007C047804787C086A
:1002200004047838444444387C1414140808141422
:10023000147C007C080404485454542004043F44B3
:10024000443C4040207C1C2040201C3C4030403C32
:1002500044281028440C5050503C4464544C4400F2
:100260000836414100007F0000414136080002018C
:100270000204020011241FBECFEFD0E2DEBFCDBFCB
:1002800012E0A0E0B1E0ECE2FEE000E00BBF02C053
:1002900007900D92AA3CB107D9F722E0AAECB2E090
:1002A00001C01D92AA3DB207E1F70E947A050C94A5
:1002B00014070C94000093E89093B00091E09093A1
:1002C000B1008093B30008959093D1028093D0023F
:1002D00026E330E020930040009779F480EF90E02F
:1002E0009093CD028093CC0280E491E09093CF0272
:1002F0008093CE0288E490E034C08130910579F497
:1003000080E491E09093CD028093CC0280EF90E066
:100310009093CF028093CE0288EE90E022C082308C
:10032000910579F480EF90E09093CD028093CC0218
:1003300080E491E09093CF028093CE0288E890E031
:1003400010C0039781F480E491E09093CD028093F4
:10035000CC0280EF90E09093CF028093CE0288E2AF
:1003600090E0809300418AE290E08093004080E03A
:1003700090E090930041809300418091CC02909155
:10038000CD02019790930041809300418BE290E071
:100390008093004080E090E0909300418093004182
:1003A0008091CE029091CF0201979093004180936B
:1003B00000410895CF93873750F4883050F08D3343
:1003C00050F48F3150F4803150F0C2E009C086E71C
:1003D00002C088E004C0C0E003C0C1E001C0C3E0C7
:1003E00021EB30E020930040C0930041682F70E083
:1003F00080E090E00E944E069B01AC0160E070E05E
:1004000080EF94E40E94B8050E94200670E002C0CC
:1004100075956795CA95E2F760930041CF9108956D
:100420000F931F93CF93DF93CDB7DEB728970FB607
:10043000F894DEBF0FBECDBF29833A834B835C8324
:100440006D837E838F83988769817A812B813C813C
:100450004D815E818F819885EAE2F0E0E093004073
:10046000709300416093004130930041209300411C
:10047000EBE2F0E0E09300405093004140930041F4
:100480009093004180930041ECE2F0E0E093004063
:100490002F5F3F4F261B370B0196841B950B2817A8
:1004A000390790F4682F6770629FA001639F500D19
:1004B000112473E0969587957A95E1F7829FB001B4
:1004C000839F700D112411C0622F6770689FA00177
:1004D000699F500D112463E0369527956A95E1F7E1
:1004E000289FB001299F700D1124842F877081509F
:1004F00028F01093004100930041F9CFCA0123E096
:10050000969587952A95E1F7860F971F019708F131
:10051000109300410093004110930041009300416B
:10052000109300410093004110930041009300415B
:10053000109300410093004110930041009300414B
:10054000109300410093004110930041009300413B
:10055000DDCF28960FB6F894DEBF0FBECDBFDF917A
:10056000CF911F910F910895EF92FF920F931F93D8
:10057000CF93DF93CDB7DEB728970FB6F894DEBFE1
:100580000FBECDBF29833A834B835C836D837E830B
:100590008F83988789819A81EB80FC806D817E8131
:1005A000AF81B8852AE230E020930040909300416B
:1005B00080930041F0920041E09200412BE230E054
:1005C000209300407093004160930041B09300413C
:1005D000A09300412CE230E020930040E816F90699
:1005E000A0F0A8019B018A01A217B30760F04E5F3B
:1005F0005F4FF80100811181109300410093004189
:100600002F5F3F4FF0CF0196E9CF28960FB6F894B1
:10061000DEBF0FBECDBFDF91CF911F910F91FF9035
:10062000EF9008950F931F93CF93DF93CDB7DEB76D
:1006300028970FB6F894DEBF0FBECDBF1092D3023D
:100640001092D2021092D5021092D4021A8219820C
:100650008091CC029091CD020197482F9C838B838F
:100660001E821D828091CE029091CF0201979887C1
:100670008F830091D8021091D90220E03A815C81E9
:1006800060E07E8198850E94100228960FB6F8944B
:10069000DEBF0FBECDBFDF91CF911F910F910895A7
:1006A00086E08093750080E8809374003F9A249AD6
:1006B0008FEC97E00197F1F700C0000047988FE3B7
:1006C0009CE90197F1F700C00000479A9FEF2DEEDB
:1006D00082E0915020408040E1F700C0000088E2B5
:1006E00090E08093004081E190E0809300409FEF94
:1006F00026E781E0915020408040E1F700C00000F3
:1007000021E030E08BEC90E08093004020930041AA
:1007100080EC90E08093004088E096E29093004166
:100720008093004120E130E081EC90E08093004034
:100730002093004185EC90E0809300408EE395E3A8
:10074000909300418093004125EB30E087EC90E0EE
:10075000809300402093004121E030E086EF90E05C
:10076000809300402093004180E090E0909300410E
:100770008093004125E530E08AE390E080930040DB
:100780002093004181E090E00E9464010E941203E6
:100790001092D3021092D2021092D5021092D4027B
:1007A0001092D9021092D8028FEF9FEF9093D70248
:1007B0008093D60289E290E0809300409FE728E38F
:1007C00081E0915020408040E1F700C0000020E02F
:1007D00030E085E390E08093004020930041EAE61A
:1007E000F0E08081806280832C9A08958CEF9FEFE7
:1007F0009093D5028093D4020895CF92DF92EF9226
:10080000FF920F931F93CF93DF93F091D202E09169
:10081000D3022091D4023091D5028A30E1F41092B3
:10082000D3021092D202285F3F4F3093D50220931B
:10083000D4028091CE029091CF022817390708F494
:100840008BC0DF91CF911F910F91FF90EF90DF90C0
:10085000CF900C94120390EE980F9F3508F07CC057
:10086000B901695F7F4F992787FD90958097A5E033
:10087000A89FA001A99F500D112448565F4F8BE2FD
:1008800090E08093004030930041209300417093AA
:100890000041609300418F2F9E2F8C010C5F1F4FF2
:1008A000EAE2EE2EF12CFCE2CF2ED12C481B590BA4
:1008B0000817190750F1E09200409093004180938F
:1008C00000419093004180930041C0920040FA01A2
:1008D000E80FF91FE491D901F1E06A177B0798F05E
:1008E000CF2FCE2329F0C091D602D091D70204C0D9
:1008F000C091D802D091D902D0930041C093004159
:100900001196FF0FEACF0196D3CF4AE250E0409311
:100910000040909300418093004190930041809368
:1009200000418CE290E0809300406217730758F01A
:100930008091D8029091D902909300418093004118
:100940002F5F3F4FF2CF8091D2029091D302069653
:100950009093D3028093D202DF91CF911F910F9198
:10096000FF90EF90DF90CF9008951F93CF93DF9388
:10097000EC0110E0FE01E10FF11D8081882321F0E0
:100980000E94FD031F5FF6CFDF91CF911F91089565
:100990009093D3028093D2027093D5026093D402D5
:1009A00008959093D7028093D6027093D9026093F2
:1009B000D80208951F93CF93DF93EC017093D30275
:1009C0006093D2025093D5024093D40210E0FE010E
:1009D000E10FF11D8081882321F00E94FD031F5F3C
:1009E000F6CFDF91CF911F910895E1E6F0E080E826
:1009F000808310820C9450031F93CF93DF93EC01FC
:100A000010E0FE01E10FF11D8081882351F00E946A
:100A1000FD038FE19EE40197F1F700C000001F5F26
:100A2000F0CFDF91CF911F910895EF92FF920F9336
:100A30001F93CF93DF93CDB7DEB7CF5FD1090FB64A
:100A4000F894DEBF0FBECDBF4EEF50E0BC01CE012B
:100A500001960E94DE0660E071E0CE0101960E94E0
:100A6000DA068C01E12C0115110531F1F801019034
:100A70000020E9F73197E01BF10BFE2EFF0CFE0E74
:100A8000FF0C8F2D90E08E0D911D8F3F910529F069
:100A900024F08AE00E94FD03E12CC8010E94FC04BE
:100AA00080E20E94FD0360E071E080E090E00E943F
:100AB000DA068C01EF0CD7CFC150DF4F0FB6F89498
:100AC000DEBF0FBECDBFDF91CF911F910F91FF9081
:100AD000EF900895CF93DF93EC01CB0160E070E0DD
:100AE0000E94D104CE010E9415058AE0DF91CF91CA
:100AF0000C94FD030E94F5046FEF7FED82E091E01E
:100B00000E946A0560EE77E082E091E00E946A054B
:100B100060E170E88AE591E00E946A0560EE77E0A6
:100B200081E091E00E946A0560EE77E089E791E05C
:100B30000E946A056FE170E08AE591E00E946A0513
:100B40006FEF7FEF8AE591E00E946A0560E27DEF3A
:100B500084E792E00E946A052FEF8EE994E221502B
:100B600080409040E1F700C000000E941203C4CF13
:100B70000CD0E6C0DED040F0D5D030F021F45F3F9D
:100B800019F0C7C0511110C1CAC0EBD098F3992316
:100B9000C9F35523B1F3951B550BBB27AA27621741
:100BA0007307840738F09F5F5F4F220F331F441F86
:100BB000AA1FA9F333D00E2E3AF0E0E830D09150BE
:100BC0005040E695001CCAF729D0FE2F27D0660FAB
:100BD000771F881FBB1F261737074807AB07B0E8EA
:100BE00009F0BB0B802DBF01FF2793585F4F2AF000
:100BF0009E3F510568F08DC0D7C05F3FECF3983E33
:100C0000DCF3869577956795B795F7959F5FC9F75C
:100C1000880F911D9695879597F90895E1E0660FE5
:100C2000771F881FBB1F621773078407BA0720F05E
:100C3000621B730B840BBA0BEE1F88F7E0950895C7
:100C400098D088F09F5790F0B92F9927B751A0F00E
:100C5000D1F0660F771F881F991F1AF0BA95C9F750
:100C600012C0B13081F09FD0B1E008959CC0672FD1
:100C7000782F8827B85F39F0B93FCCF38695779500
:100C80006795B395D9F73EF49095809570956195E9
:100C90007F4F8F4F9F4F0895E89409C097FB3EF414
:100CA00090958095709561957F4F8F4F9F4F9923B9
:100CB000A9F0F92F96E9BB279395F6958795779537
:100CC0006795B795F111F8CFFAF4BB0F11F460FFF7
:100CD0001BC06F5F7F4F8F4F9F4F16C0882311F04F
:100CE00096E911C0772321F09EE8872F762F05C063
:100CF000662371F096E8862F70E060E02AF09A95FE
:100D0000660F771F881FDAF7880F9695879597F9F2
:100D1000089597F99F6780E870E060E008959FEF7D
:100D200080EC089500240A94161617061806090682
:100D3000089500240A941216130614060506089551
:100D4000092E0394000C11F4882352F0BB0F40F4D9
:100D5000BF2B11F460FF04C06F5F7F4F8F4F9F4F19
:100D6000089557FD9058440F551F59F05F3F71F09B
:100D70004795880F97FB991F61F09F3F79F0879502
:100D80000895121613061406551FF2CF4695F1DF8B
:100D900008C0161617061806991FF1CF869571051B
:100DA000610508940895E894BB2766277727CB014F
:100DB00097F908954AEC52E00C94ED06FB01DC0132
:100DC0004150504048F001900D920020C9F701C0F9
:100DD0001D9241505040E0F70895FA01A191B08171
:100DE000009719F41097E1F0CD01DC01CD010D90D1
:100DF000002011F4C00113C0FB012191222319F03E
:100E00002015D9F7F3CFFB012191201519F41E927B
:100E1000119606C02223C1F70D900020A1F7D00142
:0C0E2000FA01A193B0830895F894FFCF6D
:100E2C0020003132333435363738393020313233D3
:100E3C00343536373839302031323334353637386B
:100E4C00393020313233343536373839302031327D
:100E5C003334353637383930203132333435363750
:100E6C003839302031323334353637383930203157
:100E7C0032333435363738393000446F6E277420AE
:100E8C0073746F7020686572652C206B65657020BB
:100E9C0077726974696E6721005468652071756595
:100EAC007374696F6E2069733A2057686174206897
:100EBC00617070656E732069662049207765726574
:100ECC0020746F206D69782074797065733F2046AB
:100EDC006F72206578616D706C65206966204920A1
:100EEC006B6E6F7720746865206D756C7469706CAF
:100EFC00696572206120697320616C776179732058
:100F0C00676F696E6720746F2072616E676520660B
:100F1C00726F6D20302E3020746F20312E302C20CB
:100F2C0069742069732074656D7074696E672074C0
:100F3C006F206D616B6520697420616E20756E7316
:100F4C0069676E656420696E742071313520746F29
:100F5C0020676574207468652065787472612062FE
:100F6C006974206F6620707265636973696F6E2097
:100F7C0028616E64206368616E6765207468652003
:100F8C00736869667420636F756E7420746F20319A
:100F9C0035292E0031323334353637383930313249
:100FAC0033343536373839302031323334353637FF
:100FBC0038393020313233343536373839303132F4
:100FCC0033343536373839302031323334353637DF
:100FDC0038393020313233343536373839303132D4
:0A0FEC003334353637383930000051
:00000001FF
