:100000000C943A010C9459010C9459010C94590127
:100010000C9459010C9459010C9459010C945901F8
:100020000C9459010C9459010C9459010C945901E8
:100030000C9459010C9459010C9459010C945901D8
:100040000C9459010C9459010C9459010C945901C8
:100050000C9459010C9474060C9459010C94590198
:100060000C9459010C9459010C9459010C945901A8
:100070000C9459010C9459010C9459010C94590198
:100080000C9459010C9459010C9459010C94590188
:100090000C9459010C945901000000000000005F0D
:1000A00000000003000300143E143E14242A7F2A9B
:1000B000124333086661364955225000050300009B
:1000C000001C2241000041221C0014083E081408B4
:1000D000083E0808005030000008080808080060C2
:1000E00060000020100804023E5149453E00040211
:1000F0007F00426151494622414949361814127F16
:100100001027454545393E494949320101710907E2
:100110003649494936264949493E003636000000ED
:10012000563600000814224100141414141400411F
:1001300022140802015109063E4159555E7E090903
:10014000097E7F494949363E414141227F41414133
:100150003E7F494949417F090909013E4141493AE8
:100160007F0808087F00417F4100304040403F7FCA
:10017000081422417F404040407F020C027F7F02F2
:1001800004087F3E4141413E7F090909061E2121A5
:10019000215E7F09090976264949493201017F011B
:1001A000013F4040403F1F2040201F7F2010207F04
:1001B00041221C224107087008076151494543004C
:1001C0007F41000002040810200000417F0004026B
:1001D0000102044040404040000102040020545409
:1001E00054787F4444443838444444443844444474
:1001F0007F385454541804047E0505085454543C64
:100200007F0804047800447D40002040443D007F86
:100210001028440000417F40007C047804787C086A
:1002200004047838444444387C1414140808141422
:10023000147C007C080404485454542004043F44B3
:10024000443C4040207C1C2040201C3C4030403C32
:1002500044281028440C5050503C4464544C4400F2
:100260000836414100007F0000414136080002018C
:100270000204020011241FBECFEFD0E2DEBFCDBFCB
:1002800011E0A0E0B1E0E2EDF0E100E00BBF02C060
:1002900007900D92AE36B107D9F721E0AEE6B1E096
:1002A00001C01D92A638B207E1F70E94A5060C9482
:1002B00067080C94000093E89093B00091E090934D
:1002C000B1008093B300089590937C0180937B01EB
:1002D00026E330E020930040009779F480EF90E02F
:1002E000909378018093770180E491E090937A0174
:1002F0008093790188E490E034C08130910579F4ED
:1003000080E491E0909378018093770180EF90E012
:1003100090937A018093790188EE90E022C0823038
:10032000910579F480EF90E09093780180937701C4
:1003300080E491E090937A018093790188E890E0DD
:1003400010C0039781F480E491E09093780180934A
:10035000770180EF90E090937A018093790188E2B1
:1003600090E0809300418AE290E08093004080E03A
:1003700090E09093004180930041809177019091AB
:100380007801019790930041809300418BE290E0C7
:100390008093004080E090E0909300418093004182
:1003A0008091790190917A01019790930041809317
:1003B00000410895CF93873750F4883050F08D3343
:1003C00050F48F3150F4803150F0C2E009C086E71C
:1003D00002C088E004C0C0E003C0C1E001C0C3E0C7
:1003E00021EB30E020930040C0930041682F70E083
:1003F00080E090E00E9496079B01AC0160E070E015
:1004000080EF94E40E9400070E94680770E002C039
:1004100075956795CA95E2F760930041CF9108956D
:100420000F931F93CF93DF93CDB7DEB728970FB607
:10043000F894DEBF0FBECDBF29833A834B835C8324
:100440006D837E838F83988769817A812B813C813C
:100450004D815E818F819885EAE2F0E0E093004073
:10046000709300416093004130930041209300411C
:10047000EBE2F0E0E09300405093004140930041F4
:100480009093004180930041ECE2F0E0E093004063
:100490002F5F3F4F261B370B0196841B950B2817A8
:1004A000390790F4682F6770629FA001639F500D19
:1004B000112473E0969587957A95E1F7829FB001B4
:1004C000839F700D112411C0622F6770689FA00177
:1004D000699F500D112463E0369527956A95E1F7E1
:1004E000289FB001299F700D1124842F877081509F
:1004F00028F01093004100930041F9CFCA0123E096
:10050000969587952A95E1F7860F971F019708F131
:10051000109300410093004110930041009300416B
:10052000109300410093004110930041009300415B
:10053000109300410093004110930041009300414B
:10054000109300410093004110930041009300413B
:10055000DDCF28960FB6F894DEBF0FBECDBFDF917A
:10056000CF911F910F910895EF92FF920F931F93D8
:10057000CF93DF93CDB7DEB728970FB6F894DEBFE1
:100580000FBECDBF29833A834B835C836D837E830B
:100590008F83988789819A81EB80FC806D817E8131
:1005A000AF81B8852AE230E020930040909300416B
:1005B00080930041F0920041E09200412BE230E054
:1005C000209300407093004160930041B09300413C
:1005D000A09300412CE230E020930040E816F90699
:1005E000A0F0A8019B018A01A217B30760F04E5F3B
:1005F0005F4FF80100811181109300410093004189
:100600002F5F3F4FF0CF0196E9CF28960FB6F894B1
:10061000DEBF0FBECDBFDF91CF911F910F91FF9035
:10062000EF9008950F931F93CF93DF93CDB7DEB76D
:1006300028970FB6F894DEBF0FBECDBF10927E0193
:1006400010927D011092800110927F011A8219820E
:1006500080917701909178010197482F9C838B833B
:100660001E821D828091790190917A01019798876D
:100670008F83009183011091840120E03A815C8195
:1006800060E07E8198850E94100228960FB6F8944B
:10069000DEBF0FBECDBFDF91CF911F910F910895A7
:1006A00086E08093750080E8809374003F9A249AD6
:1006B0008FEC97E00197F1F700C0000047988FE3B7
:1006C0009CE90197F1F700C00000479A9FEF2DEEDB
:1006D00082E0915020408040E1F700C0000088E2B5
:1006E00090E08093004081E190E0809300409FEF94
:1006F00026E781E0915020408040E1F700C00000F3
:1007000021E030E08BEC90E08093004020930041AA
:1007100080EC90E08093004088E096E29093004166
:100720008093004120E130E081EC90E08093004034
:100730002093004185EC90E0809300408EE395E3A8
:10074000909300418093004125EB30E087EC90E0EE
:10075000809300402093004121E030E086EF90E05C
:10076000809300402093004180E090E0909300410E
:100770008093004125E530E08AE390E080930040DB
:100780002093004181E090E00E9464010E941203E6
:1007900010927E0110927D011092800110927F01D3
:1007A00010928401109283018FEF9FEF909382014A
:1007B0008093810189E290E0809300409FE728E3E5
:1007C00081E0915020408040E1F700C0000020E02F
:1007D00030E085E390E08093004020930041EAE61A
:1007E000F0E08081806280832C9A08950F931F939C
:1007F000CF93DF93CDB7DEB728970FB6F894DEBF5F
:100800000FBECDBF10927E0110927D01109280012B
:1008100010927F011A82198280917701909178015C
:100820000197482F9C838B831E821D8285EE8F83C8
:100830001886009183011091840120E03A815C8147
:1008400060E07E8190E00E94100228960FB6F89436
:10085000DEBF0FBECDBFDF91CF911F910F910895E5
:1008600010927E0110927D0108950F931F93CF93F4
:10087000DF93CDB7DEB728970FB6F894DEBF0FBE73
:10088000CDBF1A82198280917701909178010197EA
:10089000482F9C838B8386EE682F8D831E828091E8
:1008A000790190917A01019798878F8300E110E890
:1008B00020E03A815C8170E098850E9410022896C1
:1008C0000FB6F894DEBF0FBECDBFDF91CF911F9161
:1008D0000F91089510927E0110927D0181EE90E0BB
:1008E0009093800180937F010895CF92DF92EF92E1
:1008F000FF920F931F93CF93DF93F0917D01E091CF
:100900007E0120917F0130918001203E310508F069
:100910008EC08A3059F410927E0110927D01285FBA
:100920003F4F3093800120937F0181C090EE980F5C
:100930009F3508F07CC0B901695F7F4F992787FD1B
:1009400090958097A5E0A89FA001A99F500D112424
:1009500048565F4F8BE290E0809300403093004117
:100960002093004170930041609300418F2F9E2F90
:100970008C010C5F1F4FEAE2EE2EF12CFCE2CF2E31
:10098000D12C481B590B0817190750F1E092004071
:1009900090930041809300419093004180930041E7
:1009A000C0920040FA01E80FF91FE491D901F1E08B
:1009B0006A177B0798F0CF2FCE2329F0C0918101D1
:1009C000D091820104C0C0918301D0918401D09361
:1009D0000041C09300411196FF0FEACF0196D3CF9B
:1009E0004AE250E0409300409093004180930041E0
:1009F00090930041809300418CE290E0809300400E
:100A00006217730758F0809183019091840190934D
:100A10000041809300412F5F3F4FF2CF80917D01D5
:100A200090917E01069690937E0180937D01DF91E7
:100A3000CF911F910F91FF90EF90DF90CF9008958D
:100A40001F93CF93DF93EC0110E0FE01E10FF11D46
:100A50008081882321F00E9475041F5FF6CFDF910B
:100A6000CF911F91089590937E0180937D017093A3
:100A7000800160937F0108959093820180938101AA
:100A8000709384016093830108951F93CF93DF9344
:100A9000EC0170937E0160937D015093800140933F
:100AA0007F0110E0FE01E10FF11D8081882321F01C
:100AB0000E9475041F5FF6CFDF91CF911F910895BB
:100AC00060E170E88FEF9FEF0E943C050E946A048E
:100AD00081E091E00C9420051F93CF93DF93C1E652
:100AE000D0E010E8188318820E94500318831882FF
:100AF000279A2F988DB180718DB98DB180728DB983
:100B00008EB18F6E8EB98EB18F6D8EB982E084BD3D
:100B100093E095BD9CE797BD80936E00DF91CF91E8
:100B20001F9108951F93CF93DF93EC0110E0FE0116
:100B3000E10FF11D8081882321F00E9475041F5F61
:100B4000F6CFDF91CF911F910895EF92FF920F930F
:100B50001F93CF93DF93CDB7DEB7C353D1400FB60A
:100B6000F894DEBF0FBECDBF4EEF50E0BC01CE010A
:100B700001960E94310860E271E0CE0101960E9468
:100B800022088C01F12C0115110509F45CC0F80153
:100B900001900020E9F7E01BF10BE0900001EE9ED0
:100BA000E02C11248E2D90E08F0D911D813F910539
:100BB000B4F18091720190917301892BC9F462E2C2
:100BC00071E0CE0193950E942608CE0193950E9474
:100BD0009205C050DF4F1882C050D1408091700103
:100BE000909171010196909371018093700115C0ED
:100BF00080917201909173011816190684F4809106
:100C00007201909173010197909373018093720127
:100C1000C050DF4F1882C050D140E12CF12CB801F8
:100C2000CE0193950E94260860E271E0CE01939573
:100C30000E94260860E271E080E090E00E942208B5
:100C40008C01FE0CA0CF8091720190917301892BD1
:100C5000C9F462E271E0CE0193950E942608CE01AC
:100C600093950E949205C050DF4F1882C050D1402A
:100C70008091700190917101019690937101809320
:100C8000700115C0809172019091730118161906B8
:100C900074F48091720190917301019790937301A4
:100CA00080937201C050DF4F1882C050D1400E9423
:100CB0003004CD5CDE4F0FB6F894DEBF0FBECDBF63
:100CC000DF91CF911F910F91FF90EF900895CF93F7
:100CD000DF93EC01CB016FEF7FEF0E943C05CE016B
:100CE000DF91CF910C94A5051F920F920FB60F9232
:100CF00011248F939F939CB194FD02C080E001C0AA
:100D000083E095FF02C091E0892790917401981BC0
:100D100090FF09C080937401809185018150927089
:100D2000890F809385019F918F910F900FBE0F9037
:100D30001F901895F894809185019091850191708C
:100D4000909385017894859508950E946C056FEFC6
:100D50007FEF80E090E00E943C050E9412030E9419
:100D600035040E94F60360E27DEF84E291E00E9488
:100D7000670660EE77E083E491E00E9467062FEF5C
:100D800089E698E1215080409040E1F700C00000E2
:100D900080916E0190916F012091700130917101ED
:100DA000821793071CF00E94600509C0019690937A
:100DB0006F0180936E019093730180937201789418
:100DC0002FEF80E792E0215080409040E1F700C093
:100DD00000000E949A06992787FD9095181619061B
:100DE0002CF460E27DEF80E691E006C0892B31F0C3
:100DF00060EE77E085E691E00E9467061F9AE0CFFB
:100E00000CD0E6C0DED040F0D5D030F021F45F3F0A
:100E100019F0C7C0511110C1CAC0EBD098F3992383
:100E2000C9F35523B1F3951B550BBB27AA276217AE
:100E30007307840738F09F5F5F4F220F331F441FF3
:100E4000AA1FA9F333D00E2E3AF0E0E830D091502B
:100E50005040E695001CCAF729D0FE2F27D0660F18
:100E6000771F881FBB1F261737074807AB07B0E857
:100E700009F0BB0B802DBF01FF2793585F4F2AF06D
:100E80009E3F510568F08DC0D7C05F3FECF3983EA0
:100E9000DCF3869577956795B795F7959F5FC9F7CA
:100EA000880F911D9695879597F90895E1E0660F53
:100EB000771F881FBB1F621773078407BA0720F0CC
:100EC000621B730B840BBA0BEE1F88F7E095089535
:100ED00098D088F09F5790F0B92F9927B751A0F07C
:100EE000D1F0660F771F881F991F1AF0BA95C9F7BE
:100EF00012C0B13081F09FD0B1E008959CC0672F3F
:100F0000782F8827B85F39F0B93FCCF3869577956D
:100F10006795B395D9F73EF4909580957095619556
:100F20007F4F8F4F9F4F0895E89409C097FB3EF481
:100F300090958095709561957F4F8F4F9F4F992326
:100F4000A9F0F92F96E9BB279395F69587957795A4
:100F50006795B795F111F8CFFAF4BB0F11F460FF64
:100F60001BC06F5F7F4F8F4F9F4F16C0882311F0BC
:100F700096E911C0772321F09EE8872F762F05C0D0
:100F8000662371F096E8862F70E060E02AF09A956B
:100F9000660F771F881FDAF7880F9695879597F960
:100FA000089597F99F6780E870E060E008959FEFEB
:100FB00080EC089500240A941616170618060906F0
:100FC000089500240A9412161306140605060895BF
:100FD000092E0394000C11F4882352F0BB0F40F447
:100FE000BF2B11F460FF04C06F5F7F4F8F4F9F4F87
:100FF000089557FD9058440F551F59F05F3F71F009
:101000004795880F97FB991F61F09F3F79F087956F
:101010000895121613061406551FF2CF4695F1DFF8
:1010200008C0161617061806991FF1CF8695710588
:10103000610508940895E894BB2766277727CB01BC
:1010400097F9089545E751E00C944008FB01DC0155
:101050000D900020E9F7119701900D920020E1F723
:101060000895FB01DC014150504048F001900D9281
:101070000020C9F701C01D9241505040E0F708958B
:10108000FA01A191B081009719F41097E1F0CD0118
:10109000DC01CD010D90002011F4C00113C0FB0153
:1010A0002191222319F02015D9F7F3CFFB012191CB
:1010B000201519F41E92119606C02223C1F70D9037
:1010C0000020A1F7D001FA01A193B0830895F8940C
:0210D000FFCF50
:1010D2000620202020202020202020202020202028
:1010E2005E20454E44204F462046494C45205E0036
:1010F20020000A00446F6E27742073746F7020689A
:101102006572652C206B6565702077726974696EF3
:10111200672100446F6E27742073746F70206865B6
:1011220072652C206B65657020646F696E672100A3
:0E1132004241434B00464F5257415244000089
:00000001FF
