:100000000C94CA020C94E9020C94E9020C94E902E3
:100010000C94E9020C94E9020C94E9020C94E902B4
:100020000C94E9020C94E9020C94E9020C94E902A4
:100030000C94E9020C94E9020C94E9020C94E90294
:100040000C94E9020C94E9020C94E9020C94E90284
:100050000C94E9020C9483050C94E9020C94E902D7
:100060000C94E9020C94E9020C94E9020C94E90264
:100070000C94E9020C94E9020C94E9020C94E90254
:100080000C94E9020C94E9020C94E9020C94E90244
:100090000C94E9020C94E90254686520717565734B
:1000A00074696F6E2069733A2057686174206861C3
:1000B0007070656E732069662049207765726500EF
:1000C00000000000000000005F5F00000000000072
:1000D0000707000707000000147F7F147F7F1400CC
:1000E0006F6F6BEB6B7B7B006373381C0E67630079
:1000F0007F7F6B63687878000707000000000000CE
:10010000FFFF80000000000080FFFF0000000000F3
:1001100036087F7F7F08360008083E080800000088
:10012000E0E00000000000000808080808000000E7
:100130006060000000000000701C0700000000006C
:100140007F7F6363637F7F006066667F7F606000A0
:100150007B7B6B6B6B6F6F0063636B6B6B7F7F0085
:100160001F1F1818187E7E006F6F6B6B6B7B7B00F8
:100170007F7F6C6C6C7C7C004363733B1F0F0700BC
:100180007F7F6B6B6B7F7F001F1F1B1B1B7F7F00A5
:100190006C6C000000000000ECEC000000000000AF
:1001A000081422220000000014141414140000008B
:1001B000222214080000000003035B5B0B0F0F00FA
:1001C0007F7F636F6B6F6F007F7F1B1B1B7F7F00C9
:1001D0007F7F6B6B6F7E7C007F7F636363636300F5
:1001E0007F7F6363677E7C007F7F6B6B6B6B6B00D5
:1001F0007F7F0B0B0B0303007F7F63636B7B7B00B5
:100200007F7F1818187F7F0063637F7F63636300BD
:1002100060606060607F3F007F7F18181E7F7900FC
:100220007F7F6060606060007F7F0306037F7F00E8
:100230007F7F0E1C387F7F007F7F6363637F7F003B
:100240007F7F1B1B1B1F1F007F7F63F3F37F7F00DC
:100250007F7F1B3B7B7F5F006F6F6B6B6B7B7B00DC
:1002600003037F7F030303007F7F6060607F7F0065
:100270001F3F7060703F1F003F7F6030607F3F0016
:10028000777F1C081C7F7700070F7C787C0F0700A6
:10029000737B6B6B6B6F6700FFFF800000000000DB
:1002A000071C70000000000080FFFF00000000003D
:1002B000007F407F00000000808080808080800080
:1002C000007F407F000000007F7F1B1B1B7F7F00A3
:1002D0007F7F6B6B6F7E7C007F7F636363636300F4
:1002E0007F7F6363677E7C007F7F6B6B6B6B6B00D4
:1002F0007F7F0B0B0B0303007F7F63636B7B7B00B4
:100300007F7F1818187F7F0063637F7F63636300BC
:1003100060606060607F3F007F7F18181E7F7900FB
:100320007F7F6060606060007F7F0306037F7F00E7
:100330007F7F0E1C387F7F007F7F6363637F7F003A
:100340007F7F1B1B1B1F1F007F7F63F3F37F7F00DB
:100350007F7F1B3B7B7F5F006F6F6B6B6B7B7B00DB
:1003600003037F7F030303007F7F6060607F7F0064
:100370001F3F7060703F1F003F7F6030607F3F0015
:10038000777F1C081C7F7700070F7C787C0F0700A5
:10039000737B6B6B6B6F67001CFFFF8000000000BE
:1003A0007F0000000000000080FFFF1C0000000034
:1003B000007F407F00000000000000000000005FA0
:1003C00000000003000300143E143E14242A7F2A78
:1003D0001243330866613649552250000503000078
:1003E000001C2241000041221C0014083E08140891
:1003F000083E08080050300000080808080800609F
:1004000060000020100804023E5149453E000402ED
:100410007F00426151494622414949361814127FF2
:100420001027454545393E494949320101710907BF
:100430003649494936264949493E003636000000CA
:1004400056360000081422410014141414140041FC
:1004500022140802015109063E4159555E7E0909E0
:10046000097E7F494949363E414141227F41414110
:100470003E7F494949417F090909013E4141493AC5
:100480007F0808087F00417F4100304040403F7FA7
:10049000081422417F404040407F020C027F7F02CF
:1004A00004087F3E4141413E7F090909061E212182
:1004B000215E7F09090976264949493201017F01F8
:1004C000013F4040403F1F2040201F7F2010207FE1
:1004D00041221C2241070870080761514945430029
:1004E0007F41000002040810200000417F00040248
:1004F00001020440404040400001020400205454E6
:1005000054787F4444443838444444443844444450
:100510007F385454541804047E0505085454543C40
:100520007F0804047800447D40002040443D007F63
:100530001028440000417F40007C047804787C0847
:1005400004047838444444387C14141408081414FF
:10055000147C007C080404485454542004043F4490
:10056000443C4040207C1C2040201C3C4030403C0F
:1005700044281028440C5050503C4464544C4400CF
:100580000836414100007F00004141360800020169
:100590000204020011241FBECFEFD0E2DEBFCDBFA8
:1005A00013E0A0E0B1E0E4E2F8E100E00BBF02C03C
:1005B00007900D92AA32B107D9F723E0AAE2B3E07F
:1005C00001C01D92A834B207E1F70E94930A0C946F
:1005D000100C0C94000010923903109238038FEF26
:1005E0009FEF90933603809335030895CF93DF9365
:1005F00000D000D000D0CDB7DEB7FC0180818E35B1
:1006000009F041C0DF010D900020E9F71197AE1B02
:10061000BF0BA430B105B8F181811697A1F59927D8
:1006200087FD90958636910599F480E3898388E764
:100630008A8382818B8383818C8384818D8385816E
:100640008E836091460370914703CE01019616C0D8
:1006500082369105C1F480E3898388E78A838281A9
:100660008B8383818C8384818D8385818E83BE017E
:100670006F5F7F4F80914403909145030E946F0A02
:1006800081E090E002C080E090E026960FB6F894FA
:10069000DEBF0FBECDBFDF91CF9108950F931F93A3
:1006A000CF93DF93CDB7DEB72C970FB6F894DEBFAC
:1006B0000FBECDBF9A8789877C876B876B857C85CA
:1006C00080E19EE00E94950A9B016115710511F47D
:1006D00021E030E0E0913A03F0913B0309851A856F
:1006E0006B857C8586EE90E0821B930B6E517109C1
:1006F0000E94950A609FA001619F500D709F500D50
:100700001124CA01820F931F9A0157FF02C020E0F3
:1007100030E097FF02C080E090E0AF014450510903
:100720005A8349833197FC83EB83263E310514F0CD
:1007300025EE30E03E832D83863E910514F085EE54
:1007400090E098878F8300E018EF29813A814B81F0
:100750005C816D817E8198850E94C8062C960FB6BB
:10076000F894DEBF0FBECDBFDF91CF911F910F91E7
:100770000895E1E6F0E080E8808310820C943D0863
:10078000E1E6F0E080E880831082279A2F988DB10F
:1007900080718DB98DB180728DB98EB18F6E8EB929
:1007A0008EB18F6D8EB982E084BD93E095BD9CE7DC
:1007B00097BD80936E0008951F93CF93DF93EC0154
:1007C00010E0FE01E10FF11D8081882321F00E94DD
:1007D00037091F5FF6CFDF91CF911F910895EF92F8
:1007E000FF920F931F93CF93DF93CDB7DEB7C35321
:1007F000D1400FB6F894DEBF0FBECDBF4EEF50E034
:10080000BC01CE0101960E94DA0B63E071E0CE01DB
:1008100001960E94CB0B8C01F12C0115110509F4F6
:1008200069C0F80101900020E9F7E01BF10BE090AE
:100830000001EE9EE02C11248E2D90E08F0D911D75
:10084000813F9105F4F18091300390913103892B20
:10085000C9F465E071E0CE0193950E94CF0BCE0103
:1008600093950E94DC03C050DF4F1882C050D140E6
:1008700080912E0390912F03019690932F038093E4
:100880002E0314C08091300390913103892BC9F05D
:1008900080913003909131030197909331038093BD
:1008A0003003C050DF4F1882C050D14080912C03DC
:1008B00090912D03019690932D0380932C03E12CAE
:1008C000F12CC8010E94F602892B59F4B801CE011F
:1008D00093950E94CF0B63E071E0CE0193950E9447
:1008E000CF0B63E071E080E090E00E94CB0B8C01C5
:1008F000FE0C93CF8091300390913103892BC9F482
:1009000065E071E0CE0193950E94CF0BCE019395E7
:100910000E94DC03C050DF4F1882C050D14080914C
:100920002E0390912F03019690932F0380932E0313
:1009300014C08091300390913103892BB9F08091DC
:1009400030039091310301979093310380933003EA
:10095000C050DF4F1882C050D14080912C0390913D
:100960002D03019690932D0380932C030E942D0953
:10097000CD5CDE4F0FB6F894DEBF0FBECDBFDF916A
:10098000CF911F910F91FF90EF90089587E091E034
:100990000E94EF0386E291E00E94EF038DEE91E06A
:1009A0000E94EF0388EE92E00E94EF0387E091E05F
:1009B0000E94EF038DEE91E00E94EF038DEE91E037
:1009C0000E94EF0388EE92E00E94EF0387E091E03F
:1009D0000E94EF038DEE91E00E94EF038DEE91E017
:1009E0000E94EF0388EE92E00E94EF0387E091E01F
:1009F0000E94EF0386E291E00E94EF038DEE91E00A
:100A00000E94EF0388EE92E00E94EF0387E091E0FE
:100A10000E94EF038DEE91E00E94EF038DEE91E0D6
:100A20000E94EF0388EE92E00E94EF0387E091E0DE
:100A30000E94EF038DEE91E00E94EF038DEE91E0B6
:100A40000E94EF0388EE92E00E94EF0387E091E0BE
:100A50000E94EF0386E291E00E94EF038DEE91E0A9
:100A60000E94EF0388EE92E00E94EF0387E091E09E
:100A70000E94EF038DEE91E00E94EF038DEE91E076
:100A80000E94EF0388EE92E00E94EF0387E091E07E
:100A90000E94EF038DEE91E00E94EF038DEE91E056
:100AA0000E94EF0388EE92E00E94EF0360912C0316
:100AB00070912D0380912A0390912B030E944E0385
:100AC00010922F0310922E0310922D0310922C03DC
:100AD00080E090E008950E94EB020E94B9030E941A
:100AE000C003609135037091360380913803909173
:100AF00039030E946F0A0E94FF070E946C070E9440
:100B0000E3080C94C6041F920F920FB60F921124A3
:100B10008F939F939CB194FD02C080E001C083E05D
:100B200095FF02C091E0892790913203981B90FFB6
:100B300009C0809332038091370381509270890FEE
:100B4000809337039F918F910F900FBE0F901F904E
:100B50001895F89480913703909137039170909392
:100B600037037894859508950E946B0578942FEF4C
:100B700086E791E0215080409040E1F700C00000FE
:100B80000E94A905C82FDD27C7FDD0951C161D069C
:100B9000D4F480912A0390912B03892B09F441C04E
:100BA00080912A0390912B038C179D0708F5809163
:100BB0002A0390912B038C179D0720F510922B038D
:100BC00010922A031FC0209761F10E943209833DD1
:100BD000910528F120912A0330912B0380912E0357
:100BE00090912F032C1B3D0B06972817390750F4C3
:100BF00080912A0390912B038C1B9D0B90932B03C8
:100C000080932A0380912A0390912B0390933103C0
:100C1000809330030E94E3080E94C60402C00E9431
:100C2000F9091F9AA4CF93E89093B00091E09093B4
:100C3000B1008093B300089590933F0380933E03E7
:100C400026E330E020930040009779F480EF90E0B5
:100C500090933B0380933A0380E491E090933D03AB
:100C600080933C0388E490E034C08130910579F4AE
:100C700080E491E090933B0380933A0380EF90E00F
:100C800090933D0380933C0388EE90E022C0823035
:100C9000910579F480EF90E090933B0380933A03C1
:100CA00080E491E090933D0380933C0388E890E0DA
:100CB00010C0039781F480E491E090933B0380930C
:100CC0003A0380EF90E090933D0380933C0388E2E9
:100CD00090E0809300418AE290E08093004080E0C1
:100CE00090E0909300418093004180913A0390916D
:100CF0003B03019790930041809300418BE290E089
:100D00008093004080E090E0909300418093004108
:100D100080913C0390913D03019790930041809313
:100D200000410895CF93873750F4883050F08D33C9
:100D300050F48F3150F4803150F0C2E009C086E7A2
:100D400002C088E004C0C0E003C0C1E001C0C3E04D
:100D500021EB30E020930040C0930041682F70E009
:100D600080E090E00E943F0B9B01AC0160E070E0EE
:100D700080EF94E40E94A90A0E94110B70E002C067
:100D800075956795CA95E2F760930041CF910895F4
:100D90000F931F93CF93DF93CDB7DEB728970FB68E
:100DA000F894DEBF0FBECDBF29833A834B835C83AB
:100DB0006D837E838F83988769817A812B813C81C3
:100DC0004D815E818F819885EAE2F0E0E0930040FA
:100DD00070930041609300413093004120930041A3
:100DE000EBE2F0E0E093004050930041409300417B
:100DF0009093004180930041ECE2F0E0E0930040EA
:100E00002F5F3F4F261B370B0196841B950B28172E
:100E1000390790F4682F6770629FA001639F500D9F
:100E2000112473E0969587957A95E1F7829FB0013A
:100E3000839F700D112411C0622F6770689FA001FD
:100E4000699F500D112463E0369527956A95E1F767
:100E5000289FB001299F700D1124842F8770815025
:100E600028F01093004100930041F9CFCA0123E01C
:100E7000969587952A95E1F7860F971F019708F1B8
:100E800010930041009300411093004100930041F2
:100E900010930041009300411093004100930041E2
:100EA00010930041009300411093004100930041D2
:100EB00010930041009300411093004100930041C2
:100EC000DDCF28960FB6F894DEBF0FBECDBFDF9101
:100ED000CF911F910F9108950F931F93CF93DF939D
:100EE000CDB7DEB728970FB6F894DEBF0FBECDBFE3
:100EF0001A82198280913A0390913B030197482FFF
:100F00009C838B8386EE682F8D831E8280913C03A9
:100F100090913D03019798878F8300E110E820E0CE
:100F20003A815C8170E098850E94C80628960FB6C9
:100F3000F894DEBF0FBECDBFDF91CF911F910F910F
:100F40000895EF92FF920F931F93CF93DF93CDB746
:100F5000DEB728970FB6F894DEBF0FBECDBF29834A
:100F60003A834B835C836D837E838F8398878981EB
:100F70009A81EB80FC806D817E81AF81B8852AE209
:100F800030E0209300409093004180930041F09224
:100F90000041E09200412BE230E02093004070934A
:100FA000004160930041B0930041A09300412CE2C6
:100FB00030E020930040E816F906A0F0A8019B015C
:100FC0008A01A217B30760F04E5F5F4FF8010081FE
:100FD000118110930041009300412F5F3F4FF0CFEC
:100FE0000196E9CF28960FB6F894DEBF0FBECDBFAD
:100FF000DF91CF911F910F91FF90EF9008950F9384
:101000001F93CF93DF93CDB7DEB728970FB6F89431
:10101000DEBF0FBECDBF109241031092400310926D
:101020004303109242031A82198280913A039091ED
:101030003B030197482F9C838B831E821D828091E6
:101040003C0390913D03019798878F83009146035D
:101050001091470320E03A815C8160E07E819885B1
:101060000E94C80628960FB6F894DEBF0FBECDBF0B
:10107000DF91CF911F910F91089586E080937500C5
:1010800080E8809374003F9A249A8FEC97E0019750
:10109000F1F700C0000047988FE39CE90197F1F752
:1010A00000C00000479A9FEF2DEE82E09150204053
:1010B0008040E1F700C0000088E290E080930040AB
:1010C00081E190E0809300409FEF26E781E091501E
:1010D00020408040E1F700C0000021E030E08BECD0
:1010E00090E0809300402093004180EC90E080935A
:1010F000004088E096E2909300418093004120E117
:1011000030E081EC90E0809300402093004185EC3A
:1011100090E0809300408EE395E3909300418093AC
:10112000004125EB30E087EC90E080930040209375
:10113000004121E030E086EF90E080930040209372
:10114000004180E090E0909300418093004125E5CC
:1011500030E08AE390E0809300402093004181E0FA
:1011600090E00E941C060E94FF071092410310921B
:1011700040031092430310924203109247031092CF
:1011800046038FEF9FEF909345038093440389E2DA
:1011900090E0809300409FE728E381E09150204059
:1011A0008040E1F700C0000020E030E085E390E0FF
:1011B0008093004020930041EAE6F0E08081806265
:1011C00080832C9A0895EF92FF920F931F93CF93F1
:1011D000DF93CDB7DEB728970FB6F894DEBF0FBE0A
:1011E000CDBF10924103109240031092430310921E
:1011F00042031A82198280913A0390913B0301972E
:10120000482F9C838B831E821D8286EE8F831886D7
:10121000E6E4EE2EE3E0FE2EF7010081118120E0EE
:101220003A815C8160E07E8190E00E94C806109265
:101230004503109244038FEF9FEFF7019183808362
:1012400028960FB6F894DEBF0FBECDBFDF91CF91C9
:101250001F910F91FF90EF9008951092410310920B
:101260004003089580914203909143030895CF92E3
:10127000DF92EF92FF920F931F93CF93DF93B09182
:101280004003A09141032091420330914303203E4B
:10129000310508F092C08A3059F41092410310923F
:1012A0004003285F3F4F309343032093420385C0A0
:1012B00090EE980F9F3508F080C0B901695F7F4FAD
:1012C000992787FD9095809745E0489FF001499FB9
:1012D000F00D112440910101509102014E0F5F1F4A
:1012E0008BE290E0809300403093004120930041D6
:1012F00070930041609300418B2F9A2F8C010C5FFB
:101300001F4FFAE2EF2EF12CACE2CA2ED12C481B73
:10131000590B0817190750F1E092004090930041D3
:10132000809300419093004180930041C09200401F
:10133000FA01E80FF91FE491D901F1E06A177B0780
:1013400098F0CF2FCE2329F0C0914403D0914503CC
:1013500004C0C0914603D0914703D0930041C0938D
:1013600000411196FF0FEACF0196D3CF4AE250E039
:10137000409300409093004180930041909300413E
:10138000809300418CE290E08093004062177307E5
:1013900058F08091460390914703909300418093C9
:1013A00000412F5F3F4FF2CF809140039091410366
:1013B00006969093410380934003DF91CF911F9154
:1013C0000F91FF90EF90DF90CF9008951F93CF93F0
:1013D000DF93EC0110E0FE01E10FF11D8081882315
:1013E00021F00E9437091F5FF6CFDF91CF911F9147
:1013F0000895AF92BF92CF92DF92EF92FF920F9338
:101400001F93CF93DF93CDB7DEB728970FB6F8942D
:10141000DEBF0FBECDBF1A82198280913A03909130
:101420003B030197482F9C838B838CED682F8D8322
:101430001E8286EE8F83188600E21DEF20E03A813F
:101440005C8170E090E00E94C806B0E4AB2EB3E08F
:10145000BB2EF5011182108212E4C12E13E0D12EB1
:101460008EED90E0F6019183808304E4E02E03E0AA
:10147000F02EF7011182108206E413E080E29DEF66
:10148000F8019183808385E093E00E94E609F501ED
:1014900011821082F60111821082F70111821082EE
:1014A0008FEF9FEFF8019183808328960FB6F89411
:1014B000DEBF0FBECDBFDF91CF911F910F91FF9087
:1014C000EF90DF90CF90BF90AF900895909341033D
:1014D0008093400370934303609342030895909375
:1014E0004503809344037093470360934603089534
:1014F0001F93CF93DF93EC017093410360934003FC
:10150000509343034093420310E0FE01E10FF11DAD
:101510008081882321F00E9437091F5FF6CFDF9179
:10152000CF911F9108950E94B405AA1BBB1B51E1E6
:1015300007C0AA1FBB1FA617B70710F0A61BB70B43
:10154000881F991F5A95A9F780959095BC01CD01E8
:1015500008950CD0E6C0DED040F0D5D030F021F4B4
:101560005F3F19F0C7C0511110C1CAC0EBD098F34A
:101570009923C9F35523B1F3951B550BBB27AA2714
:1015800062177307840738F09F5F5F4F220F331F86
:10159000441FAA1FA9F333D00E2E3AF0E0E830D052
:1015A00091505040E695001CCAF729D0FE2F27D055
:1015B000660F771F881FBB1F261737074807AB0723
:1015C000B0E809F0BB0B802DBF01FF2793585F4F98
:1015D0002AF09E3F510568F08DC0D7C05F3FECF305
:1015E000983EDCF3869577956795B795F7959F5F5D
:1015F000C9F7880F911D9695879597F90895E1E0B1
:10160000660F771F881FBB1F621773078407BA070F
:1016100020F0621B730B840BBA0BEE1F88F7E0956A
:10162000089598D088F09F5790F0B92F9927B75117
:10163000A0F0D1F0660F771F881F991F1AF0BA9596
:10164000C9F712C0B13081F09FD0B1E008959CC0BD
:10165000672F782F8827B85F39F0B93FCCF386958C
:1016600077956795B395D9F73EF4909580957095E9
:1016700061957F4F8F4F9F4F0895E89409C097FB66
:101680003EF490958095709561957F4F8F4F9F4F59
:101690009923A9F0F92F96E9BB279395F69587959D
:1016A00077956795B795F111F8CFFAF4BB0F11F460
:1016B00060FF1BC06F5F7F4F8F4F9F4F16C0882307
:1016C00011F096E911C0772321F09EE8872F762F3D
:1016D00005C0662371F096E8862F70E060E02AF07E
:1016E0009A95660F771F881FDAF7880F969587956A
:1016F00097F9089597F99F6780E870E060E0089592
:101700009FEF80EC089500240A9416161706180619
:101710000906089500240A941216130614060506F5
:101720000895092E0394000C11F4882352F0BB0F86
:1017300040F4BF2B11F460FF04C06F5F7F4F8F4FE9
:101740009F4F089557FD9058440F551F59F05F3F24
:1017500071F04795880F97FB991F61F09F3F79F0D3
:1017600087950895121613061406551FF2CF469555
:10177000F1DF08C0161617061806991FF1CF8695D7
:101780007105610508940895E894BB2766277727BB
:10179000CB0197F9089543E353E00C94E90BFB0167
:1017A000DC010D900020E9F7119701900D920020C7
:1017B000E1F70895FB01DC014150504048F00190F1
:1017C0000D920020C9F701C01D9241505040E0F732
:1017D0000895FA01A191B081009719F41097E1F0F2
:1017E000CD01DC01CD010D90002011F4C00113C02A
:1017F000FB012191222319F02015D9F7F3CFFB012A
:101800002191201519F41E92119606C02223C1F7CA
:101810000D900020A1F7D001FA01A193B0830895A3
:04182000F894FFCF6A
:1018240006B80320000A00446F6E27742073746F97
:101834007020686572652C206B656570207772690D
:1018440074696E67210054686520717565737469E5
:101854006F6E2069733A205E6241313435207468BA
:1018640065206D756C7469706C696572206120699E
:101874007320616C7761797320676F696E67207478
:101884006F2072616E67652066726F6D20302E3036
:1018940020746F20312E302C2069742069732074D9
:1018A400656D7074696E6720746F206D616B65205F
:1018B400697420616E20756E7369676E6564206952
:1018C4006E742071313520746F20676574207468DC
:1018D4006520657874726120626974206F66207077
:1018E4007265636973696F6E2028616E6420636832
:1018F400616E676520746865207368696674206327
:101904006F756E7420746F203135292E005468650C
:10191400207175657374696F6E2069733A20576816
:1019240061742068617070656E7320696620492057
:101934007765726520746F206D697820747970659D
:10194400733F20466F72206578616D706C65206905
:10195400662049206B6E6F7720746865206D756C06
:101964007469706C696572206120697320616C7799
:1019740061797320676F696E6720746F2072616E7E
:1019840067652066726F6D20302E3020746F2031B1
:101994002E302C2069742069732074656D7074690D
:1019A4006E6720746F206D616B6520697420616EB1
:1019B40020756E7369676E656420696E7420713179
:1019C4003520746F206765742074686520657874A9
:1019D400726120626974206F662070726563697336
:1019E400696F6E2028616E64206368616E6765208C
:1019F40074686520736869667420636F756E7420FB
:101A0400746F203135292E00446F6E27742073744F
:101A14006F7020686572652C206B65657020646F3B
:101A2400696E6721002020202020202020202020F3
:101A340020202020202020203D3D20454E44204FC2
:0A1A4400462046494C45203D3D0078
:00000001FF
