:100000000C9410040C942F040C942F040C942F04C3
:100010000C942F040C942F040C942F040C942F0494
:100020000C942F040C942F040C942F040C942F0484
:100030000C942F040C942F040C942F040C942F0474
:100040000C942F040C942F040C942F040C942F0464
:100050000C942F040C94F7060C942F040C942F048A
:100060000C942F040C942F040C942F040C942F0444
:100070000C942F040C942F040C942F040C942F0434
:100080000C942F040C942F040C942F040C942F0424
:100090000C942F040C942F045E774220546F6B79DC
:1000A0006F204F6C796D706963733A20312E336D18
:1000B000207061796D656E7420746F207365637252
:1000C0006574206163636F756E7420726169736516
:1000D00073207175657374696F6E73206F766572C6
:1000E00020323032302047616D6573200A200A20AB
:1000F0005E7750204120736576656E2D6669677561
:100100007265207061796D656E742066726F6D2006
:10011000746865207375636365737366756C2054CA
:100120006F6B796F204F6C796D70696320626964C1
:10013000207465616D20746F2061206E6F746F7222
:10014000696F7573206163636F756E74206C696E7F
:100150006B656420746F2074686520736F6E206F08
:1001600066207468652064697367726163656420E2
:10017000666F726D657220776F726C64206174684F
:100180006C6574696373206368696566204C616D92
:10019000696E6520446961636B20776173206170CB
:1001A000706172656E746C79206D61646520647530
:1001B00072696E6720746865207261636520746F70
:1001C00020686F73742074686520323032302047A5
:1001D000616D65732C207468652047756172646970
:1001E000616E20686173206C6561726E65642E209B
:1001F0000A200A205E7750205E6646383030205450
:10020000686520616C6C65676564207061796D65F7
:100210006E74206F662061726F756E6420312E33AC
:100220006D2C206E6F772062656C69657665642041
:10023000746F20626520756E6465722073637275D9
:1002400074696E79206279204672656E63682070E9
:100250006F6C6963652C2077696C6C20696E6372C2
:1002600065617365207072657373757265206F6E5A
:100270002074686520496E7465726E6174696F6E72
:10028000616C204F6C796D70696320436F6D6D698F
:100290007474656520746F20696E76657374696720
:1002A0006174652070726F7065726C79206C696E14
:1002B0006B73206265747765656E20446961636B5A
:1002C000E280997320726567696D6520616E6420B4
:1002D0007468652062696464696E67207261636531
:1002E00020666F722069747320666C616773686939
:1002F00070206576656E742E20497420636F756C6E
:100300006420616C736F207261697365207365721C
:10031000696F7573207175657374696F6E73206F83
:1003200076657220546F6B796FE2809973207769DC
:100330006E6E696E67206269642C206177617264F9
:10034000656420696E20323031332E0000000000D9
:10035000000000005F5F00000000000007070007CA
:1003600007000000147F7F147F7F14006F6F6BEB1A
:100370006B7B7B006373381C0E6763007F7F6B634E
:10038000687878000707000000000000FFFF800089
:100390000000000080FFFF000000000036087F7FA3
:1003A0007F08360008083E0808000000E0E0000072
:1003B0000000000008080808080000006060000055
:1003C00000000000701C0700000000007F7F6363D6
:1003D000637F7F006066667F7F6060007B7B6B6B06
:1003E0006B6F6F0063636B6B6B7F7F001F1F181851
:1003F000187E7E006F6F6B6B6B7B7B007F7F6C6CFE
:100400006C7C7C004363733B1F0F07007F7F6B6B2B
:100410006B7F7F001F1F1B1B1B7F7F006C6C00000E
:1004200000000000ECEC0000000000000814222294
:1004300000000000141414141400000022221408F8
:100440000000000003035B5B0B0F0F007F7F636FF7
:100450006B6F6F007F7F1B1B1B7F7F007F7F6B6B32
:100460006F7E7C007F7F6363636363007F7F636372
:10047000677E7C007F7F6B6B6B6B6B007F7F0B0BF2
:100480000B0303007F7F63636B7B7B007F7F181808
:10049000187F7F0063637F7F6363630060606060D9
:1004A000607F3F007F7F18181E7F79007F7F60602C
:1004B000606060007F7F0306037F7F007F7F0E1CEC
:1004C000387F7F007F7F6363637F7F007F7F1B1B9D
:1004D0001B1F1F007F7F63F3F37F7F007F7F1B3B2A
:1004E0007B7F5F006F6F6B6B6B7B7B0003037F7F9A
:1004F000030303007F7F6060607F7F001F3F7060A9
:10050000703F1F003F7F6030607F3F00777F1C0897
:100510001C7F7700070F7C787C0F0700737B6B6B69
:100520006B6F6700FFFF800000000000071C700079
:100530000000000080FFFF0000000000007F407FFF
:10054000000000008080808080808000007F407FED
:10055000000000007F7F1B1B1B7F7F007F7F6B6B7A
:100560006F7E7C007F7F6363636363007F7F636371
:10057000677E7C007F7F6B6B6B6B6B007F7F0B0BF1
:100580000B0303007F7F63636B7B7B007F7F181807
:10059000187F7F0063637F7F6363630060606060D8
:1005A000607F3F007F7F18181E7F79007F7F60602B
:1005B000606060007F7F0306037F7F007F7F0E1CEB
:1005C000387F7F007F7F6363637F7F007F7F1B1B9C
:1005D0001B1F1F007F7F63F3F37F7F007F7F1B3B29
:1005E0007B7F5F006F6F6B6B6B7B7B0003037F7F99
:1005F000030303007F7F6060607F7F001F3F7060A8
:10060000703F1F003F7F6030607F3F00777F1C0896
:100610001C7F7700070F7C787C0F0700737B6B6B68
:100620006B6F67001CFFFF80000000007F00000070
:100630000000000080FFFF1C00000000007F407FE2
:1006400000000000000000000000005F0000000348
:10065000000300143E143E14242A7F2A1243330858
:10066000666136495522500005030000001C2241F6
:10067000000041221C0014083E081408083E080827
:1006800000503000000808080808006060000020E2
:10069000100804023E5149453E0004027F004261B9
:1006A00051494622414949361814127F10274545C1
:1006B00045393E49494932010171090736494949DD
:1006C00036264949493E00363600000056360000BD
:1006D00008142241001414141414004122140802B6
:1006E000015109063E4159555E7E0909097E7F493F
:1006F0004949363E414141227F4141413E7F49497E
:1007000049417F090909013E4141493A7F080808EA
:100710007F00417F4100304040403F7F081422412C
:100720007F404040407F020C027F7F0204087F3EF2
:100730004141413E7F090909061E2121215E7F09B1
:10074000090976264949493201017F01013F4040AC
:10075000403F1F2040201F7F2010207F41221C226D
:100760004107087008076151494543007F41000077
:1007700002040810200000417F000402010204402E
:1007800040404040000102040020545454787F440B
:100790004444383844444444384444447F385454EE
:1007A000541804047E0505085454543C7F0804047E
:1007B0007800447D40002040443D007F10284400E4
:1007C00000417F40007C047804787C080404783879
:1007D000444444387C14141408081414147C007C19
:1007E000080404485454542004043F44443C40400A
:1007F000207C1C2040201C3C4030403C44281028D9
:10080000440C5050503C4464544C44000836414120
:1008100000007F000041413608000201020402008E
:1008200011241FBECFEFD0E2DEBFCDBF11E0A0E0AC
:10083000B1E0E8E1FCE100E00BBF02C007900D92DF
:10084000A83BB107D9F721E0A8EBB1E001C01D92A8
:10085000A63DB207E1F70E947D0C0C940A0E0C94A1
:1008600000001092C7011092C6018FEF9FEF909386
:10087000C4018093C3010895EF92FF920F931F93D9
:10088000CF93DF937C01809101019091020105E0FB
:1008900011E0C0E0D0E00097A9F0B7010E94CB0DB5
:1008A000892B49F4CC0FDD1FCC0FDD1FCF5FDE4F4E
:1008B0008A819B8109C02196F801808191810C5F1A
:1008C0001F4FE9CF85E090E0DF91CF911F910F910D
:1008D000FF90EF900895CF93DF9300D000D000D029
:1008E000CDB7DEB7FC0180818E3509F0AAC0DF01EB
:1008F0000D900020E9F71197AE1BBF0BA330B10597
:1009000008F49FC08181992787FD9095A630B10595
:1009100071F58636910599F480E3898388E78A83A7
:1009200082818B8383818C8384818D8385818E8377
:100930006091D4017091D501CE01019672C08236CA
:10094000910509F07EC080E3898388E78A838281EC
:100950008B8383818C8384818D8385818E83BE018B
:100960006F5F7F4F8091D2019091D3015AC013974E
:1009700009F067C08737910509F063C0828180352F
:1009800019F484E291E004C0823459F48BE291E0DE
:100990000E94A60A6091D4017091D50180E090E098
:1009A00040C0813359F485E391E00E94A60A60912A
:1009B000D4017091D50180E098EF33C0823359F4AF
:1009C0008CE391E00E94A60A6091D4017091D50158
:1009D00080E29DEF26C0833359F483E491E00E94C6
:1009E000A60A6091D4017091D50180E098E819C001
:1009F000843359F48AE491E00E94A60A6091D401FC
:100A00007091D50180E094E00CC0853369F481E5F4
:100A100091E00E94A60A6091D4017091D5018FE106
:100A200090E00E94590C10C0863371F488E591E083
:100A30000E94A60A6091D4017091D50180E190E8EE
:100A4000F0CF80E090E002C081E090E026960FB603
:100A5000F894DEBF0FBECDBFDF91CF9108950F9305
:100A60001F93CF93DF93CDB7DEB72C970FB6F894D3
:100A7000DEBF0FBECDBF9A8789877C876B876B856A
:100A80007C8580E19EE00E947F0C9B0161157105D1
:100A900011F421E030E0E091C801F091C90109852D
:100AA0001A856B857C8586EE90E0821B930B6E51D8
:100AB00071090E947F0C609FA001619F500D709F83
:100AC000500D1124CA01820F931F9A0157FF02C0D3
:100AD00020E030E097FF02C080E090E0AF0144509A
:100AE00051095A8349833197FC83EB83263E3105B4
:100AF00014F025EE30E03E832D83863E910514F000
:100B000085EE90E098878F8300E018EF29813A8185
:100B10004B815C816D817E8198850E943C082C967A
:100B20000FB6F894DEBF0FBECDBFDF91CF911F91FE
:100B30000F910895E1E6F0E080E8808310820C9444
:100B4000B109E1E6F0E080E880831082279A2F98CF
:100B50008DB180718DB98DB180728DB98EB18F6E6E
:100B60008EB98EB18F6D8EB982E084BD93E095BD54
:100B70009CE797BD80936E0008951F93CF93DF93FA
:100B8000EC0110E0FE01E10FF11D8081882321F0CE
:100B90000E94B90A1F5FF6CFDF91CF911F91089590
:100BA000EF92FF920F931F93CF93DF93CDB7DEB7F2
:100BB000C553D8400FB6F894DEBF0FBECDBF40E09E
:100BC00058E0BC01CE0101960E94D40D6FE571E0A2
:100BD000CE0101960E94BC0D8C01F12C011511056E
:100BE00009F46EC0F80101900020E9F7E01BF10B59
:100BF000E0900001EE9EE02C11248E2D90E08F0DF0
:100C0000911D813F91050CF440C08091BE019091EF
:100C1000BF01892BD9F461E671E0CE018E5F974F59
:100C20000E94C00DCE018E5F974F0E94BD05CE5F22
:100C3000D74F1882C250D8408091BC019091BD011D
:100C400001969093BD018093BC0114C08091BE01B8
:100C50009091BF01892BC9F08091BE019091BF0195
:100C600001979093BF018093BE01CE5FD74F18824A
:100C7000C250D8408091BA019091BB0101969093E7
:100C8000BB018093BA01E12CF12CC8010E946B04D6
:100C9000892B69F4B801CE018E5F974F0E94C00D79
:100CA0006FE571E0CE018E5F974F0E94C00D6FE53A
:100CB00071E080E090E00E94BC0D8C01FE0C8ECFB4
:100CC0008091BE019091BF01892BD9F461E671E05A
:100CD000CE018E5F974F0E94C00DCE018E5F974F61
:100CE0000E94BD05CE5FD74F1882C250D840809178
:100CF000BC019091BD0101969093BD018093BC0110
:100D000014C08091BE019091BF01892BB9F08091F0
:100D1000BE019091BF0101979093BF018093BE01E6
:100D2000CE5FD74F1882C250D8408091BA019091BF
:100D3000BB0101969093BB018093BA010E94A10A66
:100D4000CB5CD74F0FB6F894DEBF0FBECDBFDF919F
:100D5000CF911F910F91FF90EF900895CF93DF9364
:100D6000CDB7DEB7D8500FB6F894DEBF0FBECDBFFB
:100D700068E970E0CE0101960E94B50DCE010196A2
:100D80000E94D0056091BA017091BB018091B801B9
:100D90009091B9010E942F051092BD011092BC01E3
:100DA0001092BB011092BA0180E090E0D85F0FB6BC
:100DB000F894DEBF0FBECDBFDF91CF9108950E94A2
:100DC00031040E949A050E94A1056091C3017091AF
:100DD000C4018091C6019091C7010E94590C0E94E4
:100DE00073090E94E0080E94570A0C94AE061F92F5
:100DF0000F920FB60F9211248F939F939CB194FD85
:100E000002C080E001C083E095FF02C091E0892725
:100E10009091C001981B90FF09C08093C001809100
:100E2000C50181509270890F8093C5019F918F9168
:100E30000F900FBE0F901F901895F8948091C501E8
:100E40009091C50191709093C5017894859508950E
:100E50000E94DF0678942FEF86E791E021508040D2
:100E60009040E1F700C000000E941D07C82FDD2759
:100E7000C7FDD0951C161D06D4F48091B801909141
:100E8000B901892B09F441C08091B8019091B90151
:100E90008C179D0708F58091B8019091B9018C17C6
:100EA0009D0720F51092B9011092B8011FC020973C
:100EB00061F10E94B40A833D910528F12091B801A7
:100EC0003091B9018091BC019091BD012C1B3D0B6B
:100ED00006972817390750F48091B8019091B9010D
:100EE0008C1B9D0B9093B9018093B8018091B80140
:100EF0009091B9019093BF018093BE010E94570A5F
:100F00000E94AE0602C00E94E30B1F9AA4CF93E892
:100F10009093B00091E09093B1008093B300089556
:100F20009093CD018093CC0126E330E020930040E4
:100F3000009779F480EF90E09093C9018093C80105
:100F400080E491E09093CB018093CA0188E490E023
:100F500034C08130910579F480E491E09093C90127
:100F60008093C80180EF90E09093CB018093CA01F9
:100F700088EE90E022C08230910579F480EF90E015
:100F80009093C9018093C80180E491E09093CB01D4
:100F90008093CA0188E890E010C0039781F480E450
:100FA00091E09093C9018093C80180EF90E0909305
:100FB000CB018093CA0188E290E0809300418AE2ED
:100FC00090E08093004080E090E090930041809317
:100FD00000418091C8019091C9010197909300410F
:100FE000809300418BE290E08093004080E090E0AD
:100FF00090930041809300418091CA019091CB0170
:10100000019790930041809300410895CF938737D3
:1010100050F4883050F08D3350F48F3150F48031DB
:1010200050F0C2E009C086E702C088E004C0C0E01A
:1010300003C0C1E001C0C3E021EB30E020930040D9
:10104000C0930041682F70E080E090E00E94290D7D
:101050009B01AC0160E070E080EF94E40E94930C8F
:101060000E94FB0C70E002C075956795CA95E2F787
:1010700060930041CF9108950F931F93CF93DF9317
:10108000CDB7DEB728970FB6F894DEBF0FBECDBF41
:1010900029833A834B835C836D837E838F83988718
:1010A00069817A812B813C814D815E818F81988518
:1010B000EAE2F0E0E0930040709300416093004169
:1010C0003093004120930041EBE2F0E0E0930040D8
:1010D0005093004140930041909300418093004120
:1010E000ECE2F0E0E09300402F5F3F4F261B370B10
:1010F0000196841B950B2817390790F4682F6770A9
:10110000629FA001639F500D112473E0969587950F
:101110007A95E1F7829FB001839F700D112411C071
:10112000622F6770689FA001699F500D112463E0D2
:10113000369527956A95E1F7289FB001299F700D94
:101140001124842F8770815028F010930041009360
:101150000041F9CFCA0123E0969587952A95E1F7DA
:10116000860F971F019708F11093004100930041EB
:1011700010930041009300411093004100930041FF
:1011800010930041009300411093004100930041EF
:1011900010930041009300411093004100930041DF
:1011A0001093004100930041DDCF28960FB6F894CC
:1011B000DEBF0FBECDBFDF91CF911F910F9108957C
:1011C0000F931F93CF93DF93CDB7DEB728970FB65A
:1011D000F894DEBF0FBECDBF1A8219828091C8017C
:1011E0009091C9010197482F9C838B8386EE682FCD
:1011F0008D831E828091CA019091CB0101979887BF
:101200008F8300E110E820E03A815C8170E09885EE
:101210000E943C0828960FB6F894DEBF0FBECDBFE3
:10122000DF91CF911F910F910895EF92FF920F934D
:101230001F93CF93DF93CDB7DEB728970FB6F894FF
:10124000DEBF0FBECDBF29833A834B835C836D83A2
:101250007E838F83988789819A81EB80FC806D8162
:101260007E81AF81B8852AE230E0209300409093E0
:10127000004180930041F0920041E09200412BE256
:1012800030E0209300407093004160930041B093A0
:101290000041A09300412CE230E020930040E8168A
:1012A000F906A0F0A8019B018A01A217B30760F01C
:1012B0004E5F5F4FF8010081118110930041009350
:1012C00000412F5F3F4FF0CF0196E9CF28960FB630
:1012D000F894DEBF0FBECDBFDF91CF911F910F916C
:1012E000FF90EF9008950F931F93CF93DF93CDB7A7
:1012F000DEB728970FB6F894DEBF0FBECDBF1092B1
:10130000CF011092CE011092D1011092D0011A8219
:1013100019828091C8019091C9010197482F9C833F
:101320008B831E821D828091CA019091CB0101970F
:1013300098878F830091D4011091D50120E03A81E4
:101340005C8160E07E8198850E943C0828960FB6FB
:10135000F894DEBF0FBECDBFDF91CF911F910F91EB
:10136000089586E08093750080E8809374003F9A2A
:10137000249A8FEC97E00197F1F700C0000047989E
:101380008FE39CE90197F1F700C00000479A9FEFB7
:101390002DEE82E0915020408040E1F700C0000037
:1013A00088E290E08093004081E190E080930040EB
:1013B0009FEF26E781E0915020408040E1F700C098
:1013C000000021E030E08BEC90E08093004020931F
:1013D000004180EC90E08093004088E096E290939A
:1013E00000418093004120E130E081EC90E0809367
:1013F00000402093004185EC90E0809300408EE314
:1014000095E3909300418093004125EB30E087EC19
:1014100090E0809300402093004121E030E086EF8F
:1014200090E0809300402093004180E090E0909312
:1014300000418093004125E530E08AE390E080930D
:1014400000402093004181E090E00E9490070E94BC
:1014500073091092CF011092CE011092D101109217
:10146000D0011092D5011092D4018FEF9FEF90938D
:10147000D3018093D20189E290E0809300409FE7FE
:1014800028E381E0915020408040E1F700C0000057
:1014900020E030E085E390E080930040209300411D
:1014A000EAE6F0E08081806280832C9A0895EF92D2
:1014B000FF920F931F93CF93DF93CDB7DEB728979B
:1014C0000FB6F894DEBF0FBECDBF1092CF011092C1
:1014D000CE011092D1011092D0011A82198280910E
:1014E000C8019091C9010197482F9C838B831E826C
:1014F0001D8286EE8F831886E4EDEE2EE1E0FE2E4F
:10150000F7010081118120E03A815C8160E07E81F9
:1015100090E00E943C081092D3011092D2018FEF0C
:101520009FEFF7019183808328960FB6F894DEBF72
:101530000FBECDBFDF91CF911F910F91FF90EF9024
:1015400008951092CF011092CE0108959093230137
:1015500080932201089580912201909123010895A2
:101560008091210190E008958091D0019091D10166
:101570000895AF92BF92CF92DF92EF92FF920F93B6
:101580001F93CF93DF93F82EC0912201D0912301B6
:1015900064E271E0CE010E94CB0D892B19F484E244
:1015A00091E049C06BE271E0CE010E94CB0D892B26
:1015B00039F48BE291E00E943C04CCE4D3E041C0DA
:1015C00063E671E0CE010E94CB0D892B19F483E60E
:1015D00091E031C06BE671E0CE010E94CB0D892B0A
:1015E00019F48BE691E027C063E771E0CE010E9419
:1015F000CB0D892B19F483E791E01DC06BE771E0F7
:10160000CE010E94CB0D892B19F48BE791E013C01A
:1016100063E871E0CE010E94CB0D892B19F483E8B9
:1016200091E009C06BE871E0CE010E94CB0D892BDF
:1016300039F48BE891E00E943C04C4E4D6E001C098
:1016400085E0F091CE01E091CF014091D001509121
:10165000D101403E510508F098C09AE0F9120BC044
:101660001092CF011092CE01485F5F4F5093D1018D
:101670004093D0018AC090EE9F0D9F3508F085C041
:10168000A82FB0E08A01095F1F4F8F2D992787FD92
:10169000909580978A9FB0018B9F700D9A9F700DD7
:1016A00011246C0F7D1F8BE290E0809300405093DB
:1016B00000414093004110930041009300412F2FBF
:1016C0003E2FC90101978A0F9B1FFAE2EF2EF12CE2
:1016D000CCE2CC2ED12C621B730B8217930758F1EE
:1016E000E09200403093004120930041309300414C
:1016F00020930041C0920040FB01E20FF31FE491F0
:10170000EA01F1E00C171D0798F0BF2EBE2229F068
:10171000A090D201B090D30104C0A090D401B090A9
:10172000D501B0920041A09200412196FF0FEACF6F
:101730002F5F3F4FD2CF8AE290E0809300403093FA
:1017400000412093004130930041209300418CE2FE
:1017500090E0809300400417150758F08091D40161
:101760009091D50190930041809300414F5F5F4F6E
:10177000F2CF2091CE013091CF012F5F3F4F2A0F42
:101780003B1F3093CF012093CE01DF91CF911F916A
:101790000F91FF90EF90DF90CF90BF90AF900895A2
:1017A0001F93CF93DF93EC0110E0FE01E10FF11DD9
:1017B0008081882321F00E94B90A1F5FF6CFDF9154
:1017C000CF911F910895AF92BF92CF92DF92EF9287
:1017D000FF920F931F93CF93DF93CDB7DEB7289778
:1017E0000FB6F894DEBF0FBECDBF1A82198280916A
:1017F000C8019091C9010197482F9C838B838CED80
:10180000682F8D831E8286EE8F83188600E21DEF7F
:1018100020E03A815C8170E090E00E943C081EEC80
:10182000A12E11E0B12EF5011182108200EDC02E23
:1018300001E0D02E8EED90E0F6019183808382ED61
:10184000E82E81E0F82EF7011182108204ED11E0FC
:1018500080E29DEFF8019183808383E991E00E940B
:10186000D00BF50111821082F60111821082F7016E
:10187000118210828FEF9FEFF80191838083289669
:101880000FB6F894DEBF0FBECDBFDF91CF911F9191
:101890000F91FF90EF90DF90CF90BF90AF900895A1
:1018A0009093CF018093CE017093D1016093D001CA
:1018B00008959093D3018093D2017093D5016093E2
:1018C000D40108951F93CF93DF93EC017093CF0160
:1018D0006093CE015093D1014093D00110E0FE01FE
:1018E000E10FF11D8081882321F00E94B90A1F5F5A
:1018F000F6CFDF91CF911F9108950E942807AA1B70
:10190000BB1B51E107C0AA1FBB1FA617B70710F0EA
:10191000A61BB70B881F991F5A95A9F7809590951C
:10192000BC01CD0108950CD0E6C0DED040F0D5D08A
:1019300030F021F45F3F19F0C7C0511110C1CAC087
:10194000EBD098F39923C9F35523B1F3951B550BAD
:10195000BB27AA2762177307840738F09F5F5F4F82
:10196000220F331F441FAA1FA9F333D00E2E3AF0C3
:10197000E0E830D091505040E695001CCAF729D0DD
:10198000FE2F27D0660F771F881FBB1F261737072C
:101990004807AB07B0E809F0BB0B802DBF01FF275C
:1019A00093585F4F2AF09E3F510568F08DC0D7C015
:1019B0005F3FECF3983EDCF3869577956795B79596
:1019C000F7959F5FC9F7880F911D9695879597F9B1
:1019D0000895E1E0660F771F881FBB1F621773072A
:1019E0008407BA0720F0621B730B840BBA0BEE1F3F
:1019F00088F7E095089598D088F09F5790F0B92F18
:101A00009927B751A0F0D1F0660F771F881F991F53
:101A10001AF0BA95C9F712C0B13081F09FD0B1E089
:101A200008959CC0672F782F8827B85F39F0B93F99
:101A3000CCF3869577956795B395D9F73EF4909555
:101A40008095709561957F4F8F4F9F4F0895E894D3
:101A500009C097FB3EF490958095709561957F4FF6
:101A60008F4F9F4F9923A9F0F92F96E9BB279395A4
:101A7000F695879577956795B795F111F8CFFAF4B4
:101A8000BB0F11F460FF1BC06F5F7F4F8F4F9F4FE5
:101A900016C0882311F096E911C0772321F09EE843
:101AA000872F762F05C0662371F096E8862F70E0A9
:101AB00060E02AF09A95660F771F881FDAF7880F83
:101AC0009695879597F9089597F99F6780E870E054
:101AD00060E008959FEF80EC089500240A941616A4
:101AE000170618060906089500240A94121613060C
:101AF000140605060895092E0394000C11F488239A
:101B000052F0BB0F40F4BF2B11F460FF04C06F5FB5
:101B10007F4F8F4F9F4F089557FD9058440F551F8B
:101B200059F05F3F71F04795880F97FB991F61F05F
:101B30009F3F79F087950895121613061406551FD6
:101B4000F2CF4695F1DF08C0161617061806991F42
:101B5000F1CF86957105610508940895E894BB2737
:101B600066277727CB0197F90895FB01DC010590E3
:101B70000D920020E1F7089541EC51E00C94E30D43
:101B8000FB01DC010D900020E9F7119701900D9207
:101B90000020E1F70895FB01DC018D91019080198F
:101BA0000110D9F3990B0895FB01DC01415050401D
:101BB00048F001900D920020C9F701C01D924150DC
:101BC0005040E0F70895FA01A191B081009719F40F
:101BD0001097E1F0CD01DC01CD010D90002011F452
:101BE000C00113C0FB012191222319F02015D9F760
:101BF000F3CFFB012191201519F41E92119606C016
:101C00002223C1F70D900020A1F7D001FA01A19382
:081C1000B0830895F894FFCFA2
:101C180009240105002B010800630105006B01057B
:101C280000730105007B010500830105008B010598
:101C380000052401464F4E545F5000464F4E545FF6
:101C4800424F4C4400464F4E545F3100464F4E546D
:101C58005F3200464F4E545F3300464F4E545F3458
:101C680000464F4E545F3500464F4E545F360020B5
:101C7800000A00464F4E545F483100464F4E545FAD
:101C8800483200464F4E545F483300464F4E545F2B
:101C9800483400464F4E545F483500464F4E545F17
:101CA800483600202020202020202020202020200E
:101CB8002020202020203D3D20454E44204F462016
:081CC80046494C45203D3D005A
:00000001FF
